{
	"contracts/SimpleStorage.sol": {
		"SimpleStorage": {
			"abi": [
				{
					"inputs": [
						{
							"internalType": "uint256",
							"name": "_price",
							"type": "uint256"
						},
						{
							"internalType": "string",
							"name": "_brand",
							"type": "string"
						},
						{
							"internalType": "uint256",
							"name": "_transmission",
							"type": "uint256"
						}
					],
					"name": "addCar",
					"outputs": [],
					"stateMutability": "nonpayable",
					"type": "function"
				},
				{
					"inputs": [
						{
							"internalType": "string",
							"name": "_name",
							"type": "string"
						},
						{
							"internalType": "uint256",
							"name": "_favoriteNumber",
							"type": "uint256"
						}
					],
					"name": "addPerson",
					"outputs": [],
					"stateMutability": "nonpayable",
					"type": "function"
				},
				{
					"inputs": [
						{
							"internalType": "string",
							"name": "",
							"type": "string"
						}
					],
					"name": "brandToCarPrice",
					"outputs": [
						{
							"internalType": "uint256",
							"name": "",
							"type": "uint256"
						}
					],
					"stateMutability": "view",
					"type": "function"
				},
				{
					"inputs": [
						{
							"internalType": "uint256",
							"name": "",
							"type": "uint256"
						}
					],
					"name": "listOfCars",
					"outputs": [
						{
							"internalType": "uint256",
							"name": "price",
							"type": "uint256"
						},
						{
							"internalType": "string",
							"name": "brand",
							"type": "string"
						},
						{
							"internalType": "uint256",
							"name": "transmission",
							"type": "uint256"
						}
					],
					"stateMutability": "view",
					"type": "function"
				},
				{
					"inputs": [
						{
							"internalType": "uint256",
							"name": "",
							"type": "uint256"
						}
					],
					"name": "listOfPeople",
					"outputs": [
						{
							"internalType": "uint256",
							"name": "favoriteNumber",
							"type": "uint256"
						},
						{
							"internalType": "string",
							"name": "name",
							"type": "string"
						}
					],
					"stateMutability": "view",
					"type": "function"
				},
				{
					"inputs": [
						{
							"internalType": "string",
							"name": "",
							"type": "string"
						}
					],
					"name": "nameToFavoriteNumber",
					"outputs": [
						{
							"internalType": "uint256",
							"name": "",
							"type": "uint256"
						}
					],
					"stateMutability": "view",
					"type": "function"
				},
				{
					"inputs": [],
					"name": "retrieve",
					"outputs": [
						{
							"internalType": "uint256",
							"name": "",
							"type": "uint256"
						}
					],
					"stateMutability": "view",
					"type": "function"
				},
				{
					"inputs": [
						{
							"internalType": "uint256",
							"name": "_favoriteNumber",
							"type": "uint256"
						}
					],
					"name": "store",
					"outputs": [],
					"stateMutability": "nonpayable",
					"type": "function"
				}
			],
			"devdoc": {
				"kind": "dev",
				"methods": {},
				"version": 1
			},
			"evm": {
				"assembly": "    /* \"contracts/SimpleStorage.sol\":71:1245  contract SimpleStorage {... */\n  mstore(0x40, 0x80)\n  callvalue\n  dup1\n  iszero\n  tag_1\n  jumpi\n  0x00\n  dup1\n  revert\ntag_1:\n  pop\n  dataSize(sub_0)\n  dup1\n  dataOffset(sub_0)\n  0x00\n  codecopy\n  0x00\n  return\nstop\n\nsub_0: assembly {\n        /* \"contracts/SimpleStorage.sol\":71:1245  contract SimpleStorage {... */\n      mstore(0x40, 0x80)\n      callvalue\n      dup1\n      iszero\n      tag_1\n      jumpi\n      0x00\n      dup1\n      revert\n    tag_1:\n      pop\n      jumpi(tag_2, lt(calldatasize, 0x04))\n      shr(0xe0, calldataload(0x00))\n      dup1\n      0x6f760f41\n      gt\n      tag_11\n      jumpi\n      dup1\n      0x6f760f41\n      eq\n      tag_7\n      jumpi\n      dup1\n      0x8bab8dd5\n      eq\n      tag_8\n      jumpi\n      dup1\n      0xa226c34d\n      eq\n      tag_9\n      jumpi\n      dup1\n      0xab2a45e9\n      eq\n      tag_10\n      jumpi\n      jump(tag_2)\n    tag_11:\n      dup1\n      0x2e64cec1\n      eq\n      tag_3\n      jumpi\n      dup1\n      0x2ebce631\n      eq\n      tag_4\n      jumpi\n      dup1\n      0x56af3632\n      eq\n      tag_5\n      jumpi\n      dup1\n      0x6057361d\n      eq\n      tag_6\n      jumpi\n    tag_2:\n      0x00\n      dup1\n      revert\n        /* \"contracts/SimpleStorage.sol\":541:633  function retrieve() public view returns (uint256) {... */\n    tag_3:\n      tag_12\n      tag_13\n      jump\t// in\n    tag_12:\n      mload(0x40)\n      tag_14\n      swap2\n      swap1\n      tag_15\n      jump\t// in\n    tag_14:\n      mload(0x40)\n      dup1\n      swap2\n      sub\n      swap1\n      return\n        /* \"contracts/SimpleStorage.sol\":261:289  Person[] public listOfPeople */\n    tag_4:\n      tag_16\n      0x04\n      dup1\n      calldatasize\n      sub\n      dup2\n      add\n      swap1\n      tag_17\n      swap2\n      swap1\n      tag_18\n      jump\t// in\n    tag_17:\n      tag_19\n      jump\t// in\n    tag_16:\n      mload(0x40)\n      tag_20\n      swap3\n      swap2\n      swap1\n      tag_21\n      jump\t// in\n    tag_20:\n      mload(0x40)\n      dup1\n      swap2\n      sub\n      swap1\n      return\n        /* \"contracts/SimpleStorage.sol\":953:976  Car[] public listOfCars */\n    tag_5:\n      tag_22\n      0x04\n      dup1\n      calldatasize\n      sub\n      dup2\n      add\n      swap1\n      tag_23\n      swap2\n      swap1\n      tag_18\n      jump\t// in\n    tag_23:\n      tag_24\n      jump\t// in\n    tag_22:\n      mload(0x40)\n      tag_25\n      swap4\n      swap3\n      swap2\n      swap1\n      tag_26\n      jump\t// in\n    tag_25:\n      mload(0x40)\n      dup1\n      swap2\n      sub\n      swap1\n      return\n        /* \"contracts/SimpleStorage.sol\":433:533  function store(uint256 _favoriteNumber) public {... */\n    tag_6:\n      tag_27\n      0x04\n      dup1\n      calldatasize\n      sub\n      dup2\n      add\n      swap1\n      tag_28\n      swap2\n      swap1\n      tag_18\n      jump\t// in\n    tag_28:\n      tag_29\n      jump\t// in\n    tag_27:\n      stop\n        /* \"contracts/SimpleStorage.sol\":641:839  function addPerson(string memory _name, uint256 _favoriteNumber) public {... */\n    tag_7:\n      tag_30\n      0x04\n      dup1\n      calldatasize\n      sub\n      dup2\n      add\n      swap1\n      tag_31\n      swap2\n      swap1\n      tag_32\n      jump\t// in\n    tag_31:\n      tag_33\n      jump\t// in\n    tag_30:\n      stop\n        /* \"contracts/SimpleStorage.sol\":298:352  mapping(string => uint256) public nameToFavoriteNumber */\n    tag_8:\n      tag_34\n      0x04\n      dup1\n      calldatasize\n      sub\n      dup2\n      add\n      swap1\n      tag_35\n      swap2\n      swap1\n      tag_36\n      jump\t// in\n    tag_35:\n      tag_37\n      jump\t// in\n    tag_34:\n      mload(0x40)\n      tag_38\n      swap2\n      swap1\n      tag_15\n      jump\t// in\n    tag_38:\n      mload(0x40)\n      dup1\n      swap2\n      sub\n      swap1\n      return\n        /* \"contracts/SimpleStorage.sol\":985:1034  mapping(string => uint256) public brandToCarPrice */\n    tag_9:\n      tag_39\n      0x04\n      dup1\n      calldatasize\n      sub\n      dup2\n      add\n      swap1\n      tag_40\n      swap2\n      swap1\n      tag_36\n      jump\t// in\n    tag_40:\n      tag_41\n      jump\t// in\n    tag_39:\n      mload(0x40)\n      tag_42\n      swap2\n      swap1\n      tag_15\n      jump\t// in\n    tag_42:\n      mload(0x40)\n      dup1\n      swap2\n      sub\n      swap1\n      return\n        /* \"contracts/SimpleStorage.sol\":1043:1242  function addCar(uint256 _price, string memory _brand, uint256 _transmission) public {... */\n    tag_10:\n      tag_43\n      0x04\n      dup1\n      calldatasize\n      sub\n      dup2\n      add\n      swap1\n      tag_44\n      swap2\n      swap1\n      tag_45\n      jump\t// in\n    tag_44:\n      tag_46\n      jump\t// in\n    tag_43:\n      stop\n        /* \"contracts/SimpleStorage.sol\":541:633  function retrieve() public view returns (uint256) {... */\n    tag_13:\n        /* \"contracts/SimpleStorage.sol\":582:589  uint256 */\n      0x00\n        /* \"contracts/SimpleStorage.sol\":609:625  myFavoriteNumber */\n      dup1\n      sload\n        /* \"contracts/SimpleStorage.sol\":602:625  return myFavoriteNumber */\n      swap1\n      pop\n        /* \"contracts/SimpleStorage.sol\":541:633  function retrieve() public view returns (uint256) {... */\n      swap1\n      jump\t// out\n        /* \"contracts/SimpleStorage.sol\":261:289  Person[] public listOfPeople */\n    tag_19:\n      0x01\n      dup2\n      dup2\n      sload\n      dup2\n      lt\n      tag_48\n      jumpi\n      0x00\n      dup1\n      revert\n    tag_48:\n      swap1\n      0x00\n      mstore\n      keccak256(0x00, 0x20)\n      swap1\n      0x02\n      mul\n      add\n      0x00\n      swap2\n      pop\n      swap1\n      pop\n      dup1\n      0x00\n      add\n      sload\n      swap1\n      dup1\n      0x01\n      add\n      dup1\n      sload\n      tag_50\n      swap1\n      tag_51\n      jump\t// in\n    tag_50:\n      dup1\n      0x1f\n      add\n      0x20\n      dup1\n      swap2\n      div\n      mul\n      0x20\n      add\n      mload(0x40)\n      swap1\n      dup2\n      add\n      0x40\n      mstore\n      dup1\n      swap3\n      swap2\n      swap1\n      dup2\n      dup2\n      mstore\n      0x20\n      add\n      dup3\n      dup1\n      sload\n      tag_52\n      swap1\n      tag_51\n      jump\t// in\n    tag_52:\n      dup1\n      iszero\n      tag_53\n      jumpi\n      dup1\n      0x1f\n      lt\n      tag_54\n      jumpi\n      0x0100\n      dup1\n      dup4\n      sload\n      div\n      mul\n      dup4\n      mstore\n      swap2\n      0x20\n      add\n      swap2\n      jump(tag_53)\n    tag_54:\n      dup3\n      add\n      swap2\n      swap1\n      0x00\n      mstore\n      keccak256(0x00, 0x20)\n      swap1\n    tag_55:\n      dup2\n      sload\n      dup2\n      mstore\n      swap1\n      0x01\n      add\n      swap1\n      0x20\n      add\n      dup1\n      dup4\n      gt\n      tag_55\n      jumpi\n      dup3\n      swap1\n      sub\n      0x1f\n      and\n      dup3\n      add\n      swap2\n    tag_53:\n      pop\n      pop\n      pop\n      pop\n      pop\n      swap1\n      pop\n      dup3\n      jump\t// out\n        /* \"contracts/SimpleStorage.sol\":953:976  Car[] public listOfCars */\n    tag_24:\n      0x03\n      dup2\n      dup2\n      sload\n      dup2\n      lt\n      tag_56\n      jumpi\n      0x00\n      dup1\n      revert\n    tag_56:\n      swap1\n      0x00\n      mstore\n      keccak256(0x00, 0x20)\n      swap1\n      0x03\n      mul\n      add\n      0x00\n      swap2\n      pop\n      swap1\n      pop\n      dup1\n      0x00\n      add\n      sload\n      swap1\n      dup1\n      0x01\n      add\n      dup1\n      sload\n      tag_58\n      swap1\n      tag_51\n      jump\t// in\n    tag_58:\n      dup1\n      0x1f\n      add\n      0x20\n      dup1\n      swap2\n      div\n      mul\n      0x20\n      add\n      mload(0x40)\n      swap1\n      dup2\n      add\n      0x40\n      mstore\n      dup1\n      swap3\n      swap2\n      swap1\n      dup2\n      dup2\n      mstore\n      0x20\n      add\n      dup3\n      dup1\n      sload\n      tag_59\n      swap1\n      tag_51\n      jump\t// in\n    tag_59:\n      dup1\n      iszero\n      tag_60\n      jumpi\n      dup1\n      0x1f\n      lt\n      tag_61\n      jumpi\n      0x0100\n      dup1\n      dup4\n      sload\n      div\n      mul\n      dup4\n      mstore\n      swap2\n      0x20\n      add\n      swap2\n      jump(tag_60)\n    tag_61:\n      dup3\n      add\n      swap2\n      swap1\n      0x00\n      mstore\n      keccak256(0x00, 0x20)\n      swap1\n    tag_62:\n      dup2\n      sload\n      dup2\n      mstore\n      swap1\n      0x01\n      add\n      swap1\n      0x20\n      add\n      dup1\n      dup4\n      gt\n      tag_62\n      jumpi\n      dup3\n      swap1\n      sub\n      0x1f\n      and\n      dup3\n      add\n      swap2\n    tag_60:\n      pop\n      pop\n      pop\n      pop\n      pop\n      swap1\n      dup1\n      0x02\n      add\n      sload\n      swap1\n      pop\n      dup4\n      jump\t// out\n        /* \"contracts/SimpleStorage.sol\":433:533  function store(uint256 _favoriteNumber) public {... */\n    tag_29:\n        /* \"contracts/SimpleStorage.sol\":510:525  _favoriteNumber */\n      dup1\n        /* \"contracts/SimpleStorage.sol\":491:507  myFavoriteNumber */\n      0x00\n        /* \"contracts/SimpleStorage.sol\":491:525  myFavoriteNumber = _favoriteNumber */\n      dup2\n      swap1\n      sstore\n      pop\n        /* \"contracts/SimpleStorage.sol\":433:533  function store(uint256 _favoriteNumber) public {... */\n      pop\n      jump\t// out\n        /* \"contracts/SimpleStorage.sol\":641:839  function addPerson(string memory _name, uint256 _favoriteNumber) public {... */\n    tag_33:\n        /* \"contracts/SimpleStorage.sol\":724:736  listOfPeople */\n      0x01\n        /* \"contracts/SimpleStorage.sol\":743:773  Person(_favoriteNumber, _name) */\n      mload(0x40)\n      dup1\n      0x40\n      add\n      0x40\n      mstore\n      dup1\n        /* \"contracts/SimpleStorage.sol\":750:765  _favoriteNumber */\n      dup4\n        /* \"contracts/SimpleStorage.sol\":743:773  Person(_favoriteNumber, _name) */\n      dup2\n      mstore\n      0x20\n      add\n        /* \"contracts/SimpleStorage.sol\":767:772  _name */\n      dup5\n        /* \"contracts/SimpleStorage.sol\":743:773  Person(_favoriteNumber, _name) */\n      dup2\n      mstore\n      pop\n        /* \"contracts/SimpleStorage.sol\":724:775  listOfPeople.push( Person(_favoriteNumber, _name) ) */\n      swap1\n      dup1\n      0x01\n      dup2\n      sload\n      add\n      dup1\n      dup3\n      sstore\n      dup1\n      swap2\n      pop\n      pop\n      0x01\n      swap1\n      sub\n      swap1\n      0x00\n      mstore\n      keccak256(0x00, 0x20)\n      swap1\n      0x02\n      mul\n      add\n      0x00\n      swap1\n      swap2\n      swap1\n      swap2\n      swap1\n      swap2\n      pop\n      0x00\n      dup3\n      add\n      mload\n      dup2\n      0x00\n      add\n      sstore\n      0x20\n      dup3\n      add\n      mload\n      dup2\n      0x01\n      add\n      swap1\n      dup2\n      tag_66\n      swap2\n      swap1\n      tag_67\n      jump\t// in\n    tag_66:\n      pop\n      pop\n      pop\n        /* \"contracts/SimpleStorage.sol\":816:831  _favoriteNumber */\n      dup1\n        /* \"contracts/SimpleStorage.sol\":786:806  nameToFavoriteNumber */\n      0x02\n        /* \"contracts/SimpleStorage.sol\":807:812  _name */\n      dup4\n        /* \"contracts/SimpleStorage.sol\":786:813  nameToFavoriteNumber[_name] */\n      mload(0x40)\n      tag_68\n      swap2\n      swap1\n      tag_69\n      jump\t// in\n    tag_68:\n      swap1\n      dup2\n      mstore\n      0x20\n      add\n      mload(0x40)\n      dup1\n      swap2\n      sub\n      swap1\n      keccak256\n        /* \"contracts/SimpleStorage.sol\":786:831  nameToFavoriteNumber[_name] = _favoriteNumber */\n      dup2\n      swap1\n      sstore\n      pop\n        /* \"contracts/SimpleStorage.sol\":641:839  function addPerson(string memory _name, uint256 _favoriteNumber) public {... */\n      pop\n      pop\n      jump\t// out\n        /* \"contracts/SimpleStorage.sol\":298:352  mapping(string => uint256) public nameToFavoriteNumber */\n    tag_37:\n      0x02\n      dup2\n      dup1\n      mload\n      0x20\n      dup2\n      add\n      dup3\n      add\n      dup1\n      mload\n      dup5\n      dup3\n      mstore\n      0x20\n      dup4\n      add\n      0x20\n      dup6\n      add\n      keccak256\n      dup2\n      dup4\n      mstore\n      dup1\n      swap6\n      pop\n      pop\n      pop\n      pop\n      pop\n      pop\n      0x00\n      swap2\n      pop\n      swap1\n      pop\n      sload\n      dup2\n      jump\t// out\n        /* \"contracts/SimpleStorage.sol\":985:1034  mapping(string => uint256) public brandToCarPrice */\n    tag_41:\n      0x04\n      dup2\n      dup1\n      mload\n      0x20\n      dup2\n      add\n      dup3\n      add\n      dup1\n      mload\n      dup5\n      dup3\n      mstore\n      0x20\n      dup4\n      add\n      0x20\n      dup6\n      add\n      keccak256\n      dup2\n      dup4\n      mstore\n      dup1\n      swap6\n      pop\n      pop\n      pop\n      pop\n      pop\n      pop\n      0x00\n      swap2\n      pop\n      swap1\n      pop\n      sload\n      dup2\n      jump\t// out\n        /* \"contracts/SimpleStorage.sol\":1043:1242  function addCar(uint256 _price, string memory _brand, uint256 _transmission) public {... */\n    tag_46:\n        /* \"contracts/SimpleStorage.sol\":1138:1148  listOfCars */\n      0x03\n        /* \"contracts/SimpleStorage.sol\":1155:1189  Car(_price, _brand, _transmission) */\n      mload(0x40)\n      dup1\n      0x60\n      add\n      0x40\n      mstore\n      dup1\n        /* \"contracts/SimpleStorage.sol\":1159:1165  _price */\n      dup6\n        /* \"contracts/SimpleStorage.sol\":1155:1189  Car(_price, _brand, _transmission) */\n      dup2\n      mstore\n      0x20\n      add\n        /* \"contracts/SimpleStorage.sol\":1167:1173  _brand */\n      dup5\n        /* \"contracts/SimpleStorage.sol\":1155:1189  Car(_price, _brand, _transmission) */\n      dup2\n      mstore\n      0x20\n      add\n        /* \"contracts/SimpleStorage.sol\":1175:1188  _transmission */\n      dup4\n        /* \"contracts/SimpleStorage.sol\":1155:1189  Car(_price, _brand, _transmission) */\n      dup2\n      mstore\n      pop\n        /* \"contracts/SimpleStorage.sol\":1138:1191  listOfCars.push( Car(_price, _brand, _transmission) ) */\n      swap1\n      dup1\n      0x01\n      dup2\n      sload\n      add\n      dup1\n      dup3\n      sstore\n      dup1\n      swap2\n      pop\n      pop\n      0x01\n      swap1\n      sub\n      swap1\n      0x00\n      mstore\n      keccak256(0x00, 0x20)\n      swap1\n      0x03\n      mul\n      add\n      0x00\n      swap1\n      swap2\n      swap1\n      swap2\n      swap1\n      swap2\n      pop\n      0x00\n      dup3\n      add\n      mload\n      dup2\n      0x00\n      add\n      sstore\n      0x20\n      dup3\n      add\n      mload\n      dup2\n      0x01\n      add\n      swap1\n      dup2\n      tag_72\n      swap2\n      swap1\n      tag_67\n      jump\t// in\n    tag_72:\n      pop\n      0x40\n      dup3\n      add\n      mload\n      dup2\n      0x02\n      add\n      sstore\n      pop\n      pop\n        /* \"contracts/SimpleStorage.sol\":1228:1234  _price */\n      dup3\n        /* \"contracts/SimpleStorage.sol\":1202:1217  brandToCarPrice */\n      0x04\n        /* \"contracts/SimpleStorage.sol\":1218:1224  _brand */\n      dup4\n        /* \"contracts/SimpleStorage.sol\":1202:1225  brandToCarPrice[_brand] */\n      mload(0x40)\n      tag_73\n      swap2\n      swap1\n      tag_69\n      jump\t// in\n    tag_73:\n      swap1\n      dup2\n      mstore\n      0x20\n      add\n      mload(0x40)\n      dup1\n      swap2\n      sub\n      swap1\n      keccak256\n        /* \"contracts/SimpleStorage.sol\":1202:1234  brandToCarPrice[_brand] = _price */\n      dup2\n      swap1\n      sstore\n      pop\n        /* \"contracts/SimpleStorage.sol\":1043:1242  function addCar(uint256 _price, string memory _brand, uint256 _transmission) public {... */\n      pop\n      pop\n      pop\n      jump\t// out\n        /* \"#utility.yul\":7:84   */\n    tag_74:\n        /* \"#utility.yul\":44:51   */\n      0x00\n        /* \"#utility.yul\":73:78   */\n      dup2\n        /* \"#utility.yul\":62:78   */\n      swap1\n      pop\n        /* \"#utility.yul\":7:84   */\n      swap2\n      swap1\n      pop\n      jump\t// out\n        /* \"#utility.yul\":90:208   */\n    tag_75:\n        /* \"#utility.yul\":177:201   */\n      tag_116\n        /* \"#utility.yul\":195:200   */\n      dup2\n        /* \"#utility.yul\":177:201   */\n      tag_74\n      jump\t// in\n    tag_116:\n        /* \"#utility.yul\":172:175   */\n      dup3\n        /* \"#utility.yul\":165:202   */\n      mstore\n        /* \"#utility.yul\":90:208   */\n      pop\n      pop\n      jump\t// out\n        /* \"#utility.yul\":214:436   */\n    tag_15:\n        /* \"#utility.yul\":307:311   */\n      0x00\n        /* \"#utility.yul\":345:347   */\n      0x20\n        /* \"#utility.yul\":334:343   */\n      dup3\n        /* \"#utility.yul\":330:348   */\n      add\n        /* \"#utility.yul\":322:348   */\n      swap1\n      pop\n        /* \"#utility.yul\":358:429   */\n      tag_118\n        /* \"#utility.yul\":426:427   */\n      0x00\n        /* \"#utility.yul\":415:424   */\n      dup4\n        /* \"#utility.yul\":411:428   */\n      add\n        /* \"#utility.yul\":402:408   */\n      dup5\n        /* \"#utility.yul\":358:429   */\n      tag_75\n      jump\t// in\n    tag_118:\n        /* \"#utility.yul\":214:436   */\n      swap3\n      swap2\n      pop\n      pop\n      jump\t// out\n        /* \"#utility.yul\":442:517   */\n    tag_76:\n        /* \"#utility.yul\":475:481   */\n      0x00\n        /* \"#utility.yul\":508:510   */\n      0x40\n        /* \"#utility.yul\":502:511   */\n      mload\n        /* \"#utility.yul\":492:511   */\n      swap1\n      pop\n        /* \"#utility.yul\":442:517   */\n      swap1\n      jump\t// out\n        /* \"#utility.yul\":523:640   */\n    tag_77:\n        /* \"#utility.yul\":632:633   */\n      0x00\n        /* \"#utility.yul\":629:630   */\n      dup1\n        /* \"#utility.yul\":622:634   */\n      revert\n        /* \"#utility.yul\":646:763   */\n    tag_78:\n        /* \"#utility.yul\":755:756   */\n      0x00\n        /* \"#utility.yul\":752:753   */\n      dup1\n        /* \"#utility.yul\":745:757   */\n      revert\n        /* \"#utility.yul\":769:891   */\n    tag_79:\n        /* \"#utility.yul\":842:866   */\n      tag_123\n        /* \"#utility.yul\":860:865   */\n      dup2\n        /* \"#utility.yul\":842:866   */\n      tag_74\n      jump\t// in\n    tag_123:\n        /* \"#utility.yul\":835:840   */\n      dup2\n        /* \"#utility.yul\":832:867   */\n      eq\n        /* \"#utility.yul\":822:885   */\n      tag_124\n      jumpi\n        /* \"#utility.yul\":881:882   */\n      0x00\n        /* \"#utility.yul\":878:879   */\n      dup1\n        /* \"#utility.yul\":871:883   */\n      revert\n        /* \"#utility.yul\":822:885   */\n    tag_124:\n        /* \"#utility.yul\":769:891   */\n      pop\n      jump\t// out\n        /* \"#utility.yul\":897:1036   */\n    tag_80:\n        /* \"#utility.yul\":943:948   */\n      0x00\n        /* \"#utility.yul\":981:987   */\n      dup2\n        /* \"#utility.yul\":968:988   */\n      calldataload\n        /* \"#utility.yul\":959:988   */\n      swap1\n      pop\n        /* \"#utility.yul\":997:1030   */\n      tag_126\n        /* \"#utility.yul\":1024:1029   */\n      dup2\n        /* \"#utility.yul\":997:1030   */\n      tag_79\n      jump\t// in\n    tag_126:\n        /* \"#utility.yul\":897:1036   */\n      swap3\n      swap2\n      pop\n      pop\n      jump\t// out\n        /* \"#utility.yul\":1042:1371   */\n    tag_18:\n        /* \"#utility.yul\":1101:1107   */\n      0x00\n        /* \"#utility.yul\":1150:1152   */\n      0x20\n        /* \"#utility.yul\":1138:1147   */\n      dup3\n        /* \"#utility.yul\":1129:1136   */\n      dup5\n        /* \"#utility.yul\":1125:1148   */\n      sub\n        /* \"#utility.yul\":1121:1153   */\n      slt\n        /* \"#utility.yul\":1118:1237   */\n      iszero\n      tag_128\n      jumpi\n        /* \"#utility.yul\":1156:1235   */\n      tag_129\n      tag_77\n      jump\t// in\n    tag_129:\n        /* \"#utility.yul\":1118:1237   */\n    tag_128:\n        /* \"#utility.yul\":1276:1277   */\n      0x00\n        /* \"#utility.yul\":1301:1354   */\n      tag_130\n        /* \"#utility.yul\":1346:1353   */\n      dup5\n        /* \"#utility.yul\":1337:1343   */\n      dup3\n        /* \"#utility.yul\":1326:1335   */\n      dup6\n        /* \"#utility.yul\":1322:1344   */\n      add\n        /* \"#utility.yul\":1301:1354   */\n      tag_80\n      jump\t// in\n    tag_130:\n        /* \"#utility.yul\":1291:1354   */\n      swap2\n      pop\n        /* \"#utility.yul\":1247:1364   */\n      pop\n        /* \"#utility.yul\":1042:1371   */\n      swap3\n      swap2\n      pop\n      pop\n      jump\t// out\n        /* \"#utility.yul\":1377:1476   */\n    tag_81:\n        /* \"#utility.yul\":1429:1435   */\n      0x00\n        /* \"#utility.yul\":1463:1468   */\n      dup2\n        /* \"#utility.yul\":1457:1469   */\n      mload\n        /* \"#utility.yul\":1447:1469   */\n      swap1\n      pop\n        /* \"#utility.yul\":1377:1476   */\n      swap2\n      swap1\n      pop\n      jump\t// out\n        /* \"#utility.yul\":1482:1651   */\n    tag_82:\n        /* \"#utility.yul\":1566:1577   */\n      0x00\n        /* \"#utility.yul\":1600:1606   */\n      dup3\n        /* \"#utility.yul\":1595:1598   */\n      dup3\n        /* \"#utility.yul\":1588:1607   */\n      mstore\n        /* \"#utility.yul\":1640:1644   */\n      0x20\n        /* \"#utility.yul\":1635:1638   */\n      dup3\n        /* \"#utility.yul\":1631:1645   */\n      add\n        /* \"#utility.yul\":1616:1645   */\n      swap1\n      pop\n        /* \"#utility.yul\":1482:1651   */\n      swap3\n      swap2\n      pop\n      pop\n      jump\t// out\n        /* \"#utility.yul\":1657:1903   */\n    tag_83:\n        /* \"#utility.yul\":1738:1739   */\n      0x00\n        /* \"#utility.yul\":1748:1861   */\n    tag_134:\n        /* \"#utility.yul\":1762:1768   */\n      dup4\n        /* \"#utility.yul\":1759:1760   */\n      dup2\n        /* \"#utility.yul\":1756:1769   */\n      lt\n        /* \"#utility.yul\":1748:1861   */\n      iszero\n      tag_136\n      jumpi\n        /* \"#utility.yul\":1847:1848   */\n      dup1\n        /* \"#utility.yul\":1842:1845   */\n      dup3\n        /* \"#utility.yul\":1838:1849   */\n      add\n        /* \"#utility.yul\":1832:1850   */\n      mload\n        /* \"#utility.yul\":1828:1829   */\n      dup2\n        /* \"#utility.yul\":1823:1826   */\n      dup5\n        /* \"#utility.yul\":1819:1830   */\n      add\n        /* \"#utility.yul\":1812:1851   */\n      mstore\n        /* \"#utility.yul\":1784:1786   */\n      0x20\n        /* \"#utility.yul\":1781:1782   */\n      dup2\n        /* \"#utility.yul\":1777:1787   */\n      add\n        /* \"#utility.yul\":1772:1787   */\n      swap1\n      pop\n        /* \"#utility.yul\":1748:1861   */\n      jump(tag_134)\n    tag_136:\n        /* \"#utility.yul\":1895:1896   */\n      0x00\n        /* \"#utility.yul\":1886:1892   */\n      dup5\n        /* \"#utility.yul\":1881:1884   */\n      dup5\n        /* \"#utility.yul\":1877:1893   */\n      add\n        /* \"#utility.yul\":1870:1897   */\n      mstore\n        /* \"#utility.yul\":1719:1903   */\n      pop\n        /* \"#utility.yul\":1657:1903   */\n      pop\n      pop\n      pop\n      jump\t// out\n        /* \"#utility.yul\":1909:2011   */\n    tag_84:\n        /* \"#utility.yul\":1950:1956   */\n      0x00\n        /* \"#utility.yul\":2001:2003   */\n      0x1f\n        /* \"#utility.yul\":1997:2004   */\n      not\n        /* \"#utility.yul\":1992:1994   */\n      0x1f\n        /* \"#utility.yul\":1985:1990   */\n      dup4\n        /* \"#utility.yul\":1981:1995   */\n      add\n        /* \"#utility.yul\":1977:2005   */\n      and\n        /* \"#utility.yul\":1967:2005   */\n      swap1\n      pop\n        /* \"#utility.yul\":1909:2011   */\n      swap2\n      swap1\n      pop\n      jump\t// out\n        /* \"#utility.yul\":2017:2394   */\n    tag_85:\n        /* \"#utility.yul\":2105:2108   */\n      0x00\n        /* \"#utility.yul\":2133:2172   */\n      tag_139\n        /* \"#utility.yul\":2166:2171   */\n      dup3\n        /* \"#utility.yul\":2133:2172   */\n      tag_81\n      jump\t// in\n    tag_139:\n        /* \"#utility.yul\":2188:2259   */\n      tag_140\n        /* \"#utility.yul\":2252:2258   */\n      dup2\n        /* \"#utility.yul\":2247:2250   */\n      dup6\n        /* \"#utility.yul\":2188:2259   */\n      tag_82\n      jump\t// in\n    tag_140:\n        /* \"#utility.yul\":2181:2259   */\n      swap4\n      pop\n        /* \"#utility.yul\":2268:2333   */\n      tag_141\n        /* \"#utility.yul\":2326:2332   */\n      dup2\n        /* \"#utility.yul\":2321:2324   */\n      dup6\n        /* \"#utility.yul\":2314:2318   */\n      0x20\n        /* \"#utility.yul\":2307:2312   */\n      dup7\n        /* \"#utility.yul\":2303:2319   */\n      add\n        /* \"#utility.yul\":2268:2333   */\n      tag_83\n      jump\t// in\n    tag_141:\n        /* \"#utility.yul\":2358:2387   */\n      tag_142\n        /* \"#utility.yul\":2380:2386   */\n      dup2\n        /* \"#utility.yul\":2358:2387   */\n      tag_84\n      jump\t// in\n    tag_142:\n        /* \"#utility.yul\":2353:2356   */\n      dup5\n        /* \"#utility.yul\":2349:2388   */\n      add\n        /* \"#utility.yul\":2342:2388   */\n      swap2\n      pop\n        /* \"#utility.yul\":2109:2394   */\n      pop\n        /* \"#utility.yul\":2017:2394   */\n      swap3\n      swap2\n      pop\n      pop\n      jump\t// out\n        /* \"#utility.yul\":2400:2823   */\n    tag_21:\n        /* \"#utility.yul\":2541:2545   */\n      0x00\n        /* \"#utility.yul\":2579:2581   */\n      0x40\n        /* \"#utility.yul\":2568:2577   */\n      dup3\n        /* \"#utility.yul\":2564:2582   */\n      add\n        /* \"#utility.yul\":2556:2582   */\n      swap1\n      pop\n        /* \"#utility.yul\":2592:2663   */\n      tag_144\n        /* \"#utility.yul\":2660:2661   */\n      0x00\n        /* \"#utility.yul\":2649:2658   */\n      dup4\n        /* \"#utility.yul\":2645:2662   */\n      add\n        /* \"#utility.yul\":2636:2642   */\n      dup6\n        /* \"#utility.yul\":2592:2663   */\n      tag_75\n      jump\t// in\n    tag_144:\n        /* \"#utility.yul\":2710:2719   */\n      dup2\n        /* \"#utility.yul\":2704:2708   */\n      dup2\n        /* \"#utility.yul\":2700:2720   */\n      sub\n        /* \"#utility.yul\":2695:2697   */\n      0x20\n        /* \"#utility.yul\":2684:2693   */\n      dup4\n        /* \"#utility.yul\":2680:2698   */\n      add\n        /* \"#utility.yul\":2673:2721   */\n      mstore\n        /* \"#utility.yul\":2738:2816   */\n      tag_145\n        /* \"#utility.yul\":2811:2815   */\n      dup2\n        /* \"#utility.yul\":2802:2808   */\n      dup5\n        /* \"#utility.yul\":2738:2816   */\n      tag_85\n      jump\t// in\n    tag_145:\n        /* \"#utility.yul\":2730:2816   */\n      swap1\n      pop\n        /* \"#utility.yul\":2400:2823   */\n      swap4\n      swap3\n      pop\n      pop\n      pop\n      jump\t// out\n        /* \"#utility.yul\":2829:3362   */\n    tag_26:\n        /* \"#utility.yul\":2998:3002   */\n      0x00\n        /* \"#utility.yul\":3036:3038   */\n      0x60\n        /* \"#utility.yul\":3025:3034   */\n      dup3\n        /* \"#utility.yul\":3021:3039   */\n      add\n        /* \"#utility.yul\":3013:3039   */\n      swap1\n      pop\n        /* \"#utility.yul\":3049:3120   */\n      tag_147\n        /* \"#utility.yul\":3117:3118   */\n      0x00\n        /* \"#utility.yul\":3106:3115   */\n      dup4\n        /* \"#utility.yul\":3102:3119   */\n      add\n        /* \"#utility.yul\":3093:3099   */\n      dup7\n        /* \"#utility.yul\":3049:3120   */\n      tag_75\n      jump\t// in\n    tag_147:\n        /* \"#utility.yul\":3167:3176   */\n      dup2\n        /* \"#utility.yul\":3161:3165   */\n      dup2\n        /* \"#utility.yul\":3157:3177   */\n      sub\n        /* \"#utility.yul\":3152:3154   */\n      0x20\n        /* \"#utility.yul\":3141:3150   */\n      dup4\n        /* \"#utility.yul\":3137:3155   */\n      add\n        /* \"#utility.yul\":3130:3178   */\n      mstore\n        /* \"#utility.yul\":3195:3273   */\n      tag_148\n        /* \"#utility.yul\":3268:3272   */\n      dup2\n        /* \"#utility.yul\":3259:3265   */\n      dup6\n        /* \"#utility.yul\":3195:3273   */\n      tag_85\n      jump\t// in\n    tag_148:\n        /* \"#utility.yul\":3187:3273   */\n      swap1\n      pop\n        /* \"#utility.yul\":3283:3355   */\n      tag_149\n        /* \"#utility.yul\":3351:3353   */\n      0x40\n        /* \"#utility.yul\":3340:3349   */\n      dup4\n        /* \"#utility.yul\":3336:3354   */\n      add\n        /* \"#utility.yul\":3327:3333   */\n      dup5\n        /* \"#utility.yul\":3283:3355   */\n      tag_75\n      jump\t// in\n    tag_149:\n        /* \"#utility.yul\":2829:3362   */\n      swap5\n      swap4\n      pop\n      pop\n      pop\n      pop\n      jump\t// out\n        /* \"#utility.yul\":3368:3485   */\n    tag_86:\n        /* \"#utility.yul\":3477:3478   */\n      0x00\n        /* \"#utility.yul\":3474:3475   */\n      dup1\n        /* \"#utility.yul\":3467:3479   */\n      revert\n        /* \"#utility.yul\":3491:3608   */\n    tag_87:\n        /* \"#utility.yul\":3600:3601   */\n      0x00\n        /* \"#utility.yul\":3597:3598   */\n      dup1\n        /* \"#utility.yul\":3590:3602   */\n      revert\n        /* \"#utility.yul\":3614:3794   */\n    tag_88:\n        /* \"#utility.yul\":3662:3739   */\n      0x4e487b7100000000000000000000000000000000000000000000000000000000\n        /* \"#utility.yul\":3659:3660   */\n      0x00\n        /* \"#utility.yul\":3652:3740   */\n      mstore\n        /* \"#utility.yul\":3759:3763   */\n      0x41\n        /* \"#utility.yul\":3756:3757   */\n      0x04\n        /* \"#utility.yul\":3749:3764   */\n      mstore\n        /* \"#utility.yul\":3783:3787   */\n      0x24\n        /* \"#utility.yul\":3780:3781   */\n      0x00\n        /* \"#utility.yul\":3773:3788   */\n      revert\n        /* \"#utility.yul\":3800:4081   */\n    tag_89:\n        /* \"#utility.yul\":3883:3910   */\n      tag_154\n        /* \"#utility.yul\":3905:3909   */\n      dup3\n        /* \"#utility.yul\":3883:3910   */\n      tag_84\n      jump\t// in\n    tag_154:\n        /* \"#utility.yul\":3875:3881   */\n      dup2\n        /* \"#utility.yul\":3871:3911   */\n      add\n        /* \"#utility.yul\":4013:4019   */\n      dup2\n        /* \"#utility.yul\":4001:4011   */\n      dup2\n        /* \"#utility.yul\":3998:4020   */\n      lt\n        /* \"#utility.yul\":3977:3995   */\n      0xffffffffffffffff\n        /* \"#utility.yul\":3965:3975   */\n      dup3\n        /* \"#utility.yul\":3962:3996   */\n      gt\n        /* \"#utility.yul\":3959:4021   */\n      or\n        /* \"#utility.yul\":3956:4044   */\n      iszero\n      tag_155\n      jumpi\n        /* \"#utility.yul\":4024:4042   */\n      tag_156\n      tag_88\n      jump\t// in\n    tag_156:\n        /* \"#utility.yul\":3956:4044   */\n    tag_155:\n        /* \"#utility.yul\":4064:4074   */\n      dup1\n        /* \"#utility.yul\":4060:4062   */\n      0x40\n        /* \"#utility.yul\":4053:4075   */\n      mstore\n        /* \"#utility.yul\":3843:4081   */\n      pop\n        /* \"#utility.yul\":3800:4081   */\n      pop\n      pop\n      jump\t// out\n        /* \"#utility.yul\":4087:4216   */\n    tag_90:\n        /* \"#utility.yul\":4121:4127   */\n      0x00\n        /* \"#utility.yul\":4148:4168   */\n      tag_158\n      tag_76\n      jump\t// in\n    tag_158:\n        /* \"#utility.yul\":4138:4168   */\n      swap1\n      pop\n        /* \"#utility.yul\":4177:4210   */\n      tag_159\n        /* \"#utility.yul\":4205:4209   */\n      dup3\n        /* \"#utility.yul\":4197:4203   */\n      dup3\n        /* \"#utility.yul\":4177:4210   */\n      tag_89\n      jump\t// in\n    tag_159:\n        /* \"#utility.yul\":4087:4216   */\n      swap2\n      swap1\n      pop\n      jump\t// out\n        /* \"#utility.yul\":4222:4530   */\n    tag_91:\n        /* \"#utility.yul\":4284:4288   */\n      0x00\n        /* \"#utility.yul\":4374:4392   */\n      0xffffffffffffffff\n        /* \"#utility.yul\":4366:4372   */\n      dup3\n        /* \"#utility.yul\":4363:4393   */\n      gt\n        /* \"#utility.yul\":4360:4416   */\n      iszero\n      tag_161\n      jumpi\n        /* \"#utility.yul\":4396:4414   */\n      tag_162\n      tag_88\n      jump\t// in\n    tag_162:\n        /* \"#utility.yul\":4360:4416   */\n    tag_161:\n        /* \"#utility.yul\":4434:4463   */\n      tag_163\n        /* \"#utility.yul\":4456:4462   */\n      dup3\n        /* \"#utility.yul\":4434:4463   */\n      tag_84\n      jump\t// in\n    tag_163:\n        /* \"#utility.yul\":4426:4463   */\n      swap1\n      pop\n        /* \"#utility.yul\":4518:4522   */\n      0x20\n        /* \"#utility.yul\":4512:4516   */\n      dup2\n        /* \"#utility.yul\":4508:4523   */\n      add\n        /* \"#utility.yul\":4500:4523   */\n      swap1\n      pop\n        /* \"#utility.yul\":4222:4530   */\n      swap2\n      swap1\n      pop\n      jump\t// out\n        /* \"#utility.yul\":4536:4682   */\n    tag_92:\n        /* \"#utility.yul\":4633:4639   */\n      dup3\n        /* \"#utility.yul\":4628:4631   */\n      dup2\n        /* \"#utility.yul\":4623:4626   */\n      dup4\n        /* \"#utility.yul\":4610:4640   */\n      calldatacopy\n        /* \"#utility.yul\":4674:4675   */\n      0x00\n        /* \"#utility.yul\":4665:4671   */\n      dup4\n        /* \"#utility.yul\":4660:4663   */\n      dup4\n        /* \"#utility.yul\":4656:4672   */\n      add\n        /* \"#utility.yul\":4649:4676   */\n      mstore\n        /* \"#utility.yul\":4536:4682   */\n      pop\n      pop\n      pop\n      jump\t// out\n        /* \"#utility.yul\":4688:5113   */\n    tag_93:\n        /* \"#utility.yul\":4766:4771   */\n      0x00\n        /* \"#utility.yul\":4791:4857   */\n      tag_166\n        /* \"#utility.yul\":4807:4856   */\n      tag_167\n        /* \"#utility.yul\":4849:4855   */\n      dup5\n        /* \"#utility.yul\":4807:4856   */\n      tag_91\n      jump\t// in\n    tag_167:\n        /* \"#utility.yul\":4791:4857   */\n      tag_90\n      jump\t// in\n    tag_166:\n        /* \"#utility.yul\":4782:4857   */\n      swap1\n      pop\n        /* \"#utility.yul\":4880:4886   */\n      dup3\n        /* \"#utility.yul\":4873:4878   */\n      dup2\n        /* \"#utility.yul\":4866:4887   */\n      mstore\n        /* \"#utility.yul\":4918:4922   */\n      0x20\n        /* \"#utility.yul\":4911:4916   */\n      dup2\n        /* \"#utility.yul\":4907:4923   */\n      add\n        /* \"#utility.yul\":4956:4959   */\n      dup5\n        /* \"#utility.yul\":4947:4953   */\n      dup5\n        /* \"#utility.yul\":4942:4945   */\n      dup5\n        /* \"#utility.yul\":4938:4954   */\n      add\n        /* \"#utility.yul\":4935:4960   */\n      gt\n        /* \"#utility.yul\":4932:5044   */\n      iszero\n      tag_168\n      jumpi\n        /* \"#utility.yul\":4963:5042   */\n      tag_169\n      tag_87\n      jump\t// in\n    tag_169:\n        /* \"#utility.yul\":4932:5044   */\n    tag_168:\n        /* \"#utility.yul\":5053:5107   */\n      tag_170\n        /* \"#utility.yul\":5100:5106   */\n      dup5\n        /* \"#utility.yul\":5095:5098   */\n      dup3\n        /* \"#utility.yul\":5090:5093   */\n      dup6\n        /* \"#utility.yul\":5053:5107   */\n      tag_92\n      jump\t// in\n    tag_170:\n        /* \"#utility.yul\":4772:5113   */\n      pop\n        /* \"#utility.yul\":4688:5113   */\n      swap4\n      swap3\n      pop\n      pop\n      pop\n      jump\t// out\n        /* \"#utility.yul\":5133:5473   */\n    tag_94:\n        /* \"#utility.yul\":5189:5194   */\n      0x00\n        /* \"#utility.yul\":5238:5241   */\n      dup3\n        /* \"#utility.yul\":5231:5235   */\n      0x1f\n        /* \"#utility.yul\":5223:5229   */\n      dup4\n        /* \"#utility.yul\":5219:5236   */\n      add\n        /* \"#utility.yul\":5215:5242   */\n      slt\n        /* \"#utility.yul\":5205:5327   */\n      tag_172\n      jumpi\n        /* \"#utility.yul\":5246:5325   */\n      tag_173\n      tag_86\n      jump\t// in\n    tag_173:\n        /* \"#utility.yul\":5205:5327   */\n    tag_172:\n        /* \"#utility.yul\":5363:5369   */\n      dup2\n        /* \"#utility.yul\":5350:5370   */\n      calldataload\n        /* \"#utility.yul\":5388:5467   */\n      tag_174\n        /* \"#utility.yul\":5463:5466   */\n      dup5\n        /* \"#utility.yul\":5455:5461   */\n      dup3\n        /* \"#utility.yul\":5448:5452   */\n      0x20\n        /* \"#utility.yul\":5440:5446   */\n      dup7\n        /* \"#utility.yul\":5436:5453   */\n      add\n        /* \"#utility.yul\":5388:5467   */\n      tag_93\n      jump\t// in\n    tag_174:\n        /* \"#utility.yul\":5379:5467   */\n      swap2\n      pop\n        /* \"#utility.yul\":5195:5473   */\n      pop\n        /* \"#utility.yul\":5133:5473   */\n      swap3\n      swap2\n      pop\n      pop\n      jump\t// out\n        /* \"#utility.yul\":5479:6133   */\n    tag_32:\n        /* \"#utility.yul\":5557:5563   */\n      0x00\n        /* \"#utility.yul\":5565:5571   */\n      dup1\n        /* \"#utility.yul\":5614:5616   */\n      0x40\n        /* \"#utility.yul\":5602:5611   */\n      dup4\n        /* \"#utility.yul\":5593:5600   */\n      dup6\n        /* \"#utility.yul\":5589:5612   */\n      sub\n        /* \"#utility.yul\":5585:5617   */\n      slt\n        /* \"#utility.yul\":5582:5701   */\n      iszero\n      tag_176\n      jumpi\n        /* \"#utility.yul\":5620:5699   */\n      tag_177\n      tag_77\n      jump\t// in\n    tag_177:\n        /* \"#utility.yul\":5582:5701   */\n    tag_176:\n        /* \"#utility.yul\":5768:5769   */\n      0x00\n        /* \"#utility.yul\":5757:5766   */\n      dup4\n        /* \"#utility.yul\":5753:5770   */\n      add\n        /* \"#utility.yul\":5740:5771   */\n      calldataload\n        /* \"#utility.yul\":5798:5816   */\n      0xffffffffffffffff\n        /* \"#utility.yul\":5790:5796   */\n      dup2\n        /* \"#utility.yul\":5787:5817   */\n      gt\n        /* \"#utility.yul\":5784:5901   */\n      iszero\n      tag_178\n      jumpi\n        /* \"#utility.yul\":5820:5899   */\n      tag_179\n      tag_78\n      jump\t// in\n    tag_179:\n        /* \"#utility.yul\":5784:5901   */\n    tag_178:\n        /* \"#utility.yul\":5925:5988   */\n      tag_180\n        /* \"#utility.yul\":5980:5987   */\n      dup6\n        /* \"#utility.yul\":5971:5977   */\n      dup3\n        /* \"#utility.yul\":5960:5969   */\n      dup7\n        /* \"#utility.yul\":5956:5978   */\n      add\n        /* \"#utility.yul\":5925:5988   */\n      tag_94\n      jump\t// in\n    tag_180:\n        /* \"#utility.yul\":5915:5988   */\n      swap3\n      pop\n        /* \"#utility.yul\":5711:5998   */\n      pop\n        /* \"#utility.yul\":6037:6039   */\n      0x20\n        /* \"#utility.yul\":6063:6116   */\n      tag_181\n        /* \"#utility.yul\":6108:6115   */\n      dup6\n        /* \"#utility.yul\":6099:6105   */\n      dup3\n        /* \"#utility.yul\":6088:6097   */\n      dup7\n        /* \"#utility.yul\":6084:6106   */\n      add\n        /* \"#utility.yul\":6063:6116   */\n      tag_80\n      jump\t// in\n    tag_181:\n        /* \"#utility.yul\":6053:6116   */\n      swap2\n      pop\n        /* \"#utility.yul\":6008:6126   */\n      pop\n        /* \"#utility.yul\":5479:6133   */\n      swap3\n      pop\n      swap3\n      swap1\n      pop\n      jump\t// out\n        /* \"#utility.yul\":6139:6648   */\n    tag_36:\n        /* \"#utility.yul\":6208:6214   */\n      0x00\n        /* \"#utility.yul\":6257:6259   */\n      0x20\n        /* \"#utility.yul\":6245:6254   */\n      dup3\n        /* \"#utility.yul\":6236:6243   */\n      dup5\n        /* \"#utility.yul\":6232:6255   */\n      sub\n        /* \"#utility.yul\":6228:6260   */\n      slt\n        /* \"#utility.yul\":6225:6344   */\n      iszero\n      tag_183\n      jumpi\n        /* \"#utility.yul\":6263:6342   */\n      tag_184\n      tag_77\n      jump\t// in\n    tag_184:\n        /* \"#utility.yul\":6225:6344   */\n    tag_183:\n        /* \"#utility.yul\":6411:6412   */\n      0x00\n        /* \"#utility.yul\":6400:6409   */\n      dup3\n        /* \"#utility.yul\":6396:6413   */\n      add\n        /* \"#utility.yul\":6383:6414   */\n      calldataload\n        /* \"#utility.yul\":6441:6459   */\n      0xffffffffffffffff\n        /* \"#utility.yul\":6433:6439   */\n      dup2\n        /* \"#utility.yul\":6430:6460   */\n      gt\n        /* \"#utility.yul\":6427:6544   */\n      iszero\n      tag_185\n      jumpi\n        /* \"#utility.yul\":6463:6542   */\n      tag_186\n      tag_78\n      jump\t// in\n    tag_186:\n        /* \"#utility.yul\":6427:6544   */\n    tag_185:\n        /* \"#utility.yul\":6568:6631   */\n      tag_187\n        /* \"#utility.yul\":6623:6630   */\n      dup5\n        /* \"#utility.yul\":6614:6620   */\n      dup3\n        /* \"#utility.yul\":6603:6612   */\n      dup6\n        /* \"#utility.yul\":6599:6621   */\n      add\n        /* \"#utility.yul\":6568:6631   */\n      tag_94\n      jump\t// in\n    tag_187:\n        /* \"#utility.yul\":6558:6631   */\n      swap2\n      pop\n        /* \"#utility.yul\":6354:6641   */\n      pop\n        /* \"#utility.yul\":6139:6648   */\n      swap3\n      swap2\n      pop\n      pop\n      jump\t// out\n        /* \"#utility.yul\":6654:7453   */\n    tag_45:\n        /* \"#utility.yul\":6741:6747   */\n      0x00\n        /* \"#utility.yul\":6749:6755   */\n      dup1\n        /* \"#utility.yul\":6757:6763   */\n      0x00\n        /* \"#utility.yul\":6806:6808   */\n      0x60\n        /* \"#utility.yul\":6794:6803   */\n      dup5\n        /* \"#utility.yul\":6785:6792   */\n      dup7\n        /* \"#utility.yul\":6781:6804   */\n      sub\n        /* \"#utility.yul\":6777:6809   */\n      slt\n        /* \"#utility.yul\":6774:6893   */\n      iszero\n      tag_189\n      jumpi\n        /* \"#utility.yul\":6812:6891   */\n      tag_190\n      tag_77\n      jump\t// in\n    tag_190:\n        /* \"#utility.yul\":6774:6893   */\n    tag_189:\n        /* \"#utility.yul\":6932:6933   */\n      0x00\n        /* \"#utility.yul\":6957:7010   */\n      tag_191\n        /* \"#utility.yul\":7002:7009   */\n      dup7\n        /* \"#utility.yul\":6993:6999   */\n      dup3\n        /* \"#utility.yul\":6982:6991   */\n      dup8\n        /* \"#utility.yul\":6978:7000   */\n      add\n        /* \"#utility.yul\":6957:7010   */\n      tag_80\n      jump\t// in\n    tag_191:\n        /* \"#utility.yul\":6947:7010   */\n      swap4\n      pop\n        /* \"#utility.yul\":6903:7020   */\n      pop\n        /* \"#utility.yul\":7087:7089   */\n      0x20\n        /* \"#utility.yul\":7076:7085   */\n      dup5\n        /* \"#utility.yul\":7072:7090   */\n      add\n        /* \"#utility.yul\":7059:7091   */\n      calldataload\n        /* \"#utility.yul\":7118:7136   */\n      0xffffffffffffffff\n        /* \"#utility.yul\":7110:7116   */\n      dup2\n        /* \"#utility.yul\":7107:7137   */\n      gt\n        /* \"#utility.yul\":7104:7221   */\n      iszero\n      tag_192\n      jumpi\n        /* \"#utility.yul\":7140:7219   */\n      tag_193\n      tag_78\n      jump\t// in\n    tag_193:\n        /* \"#utility.yul\":7104:7221   */\n    tag_192:\n        /* \"#utility.yul\":7245:7308   */\n      tag_194\n        /* \"#utility.yul\":7300:7307   */\n      dup7\n        /* \"#utility.yul\":7291:7297   */\n      dup3\n        /* \"#utility.yul\":7280:7289   */\n      dup8\n        /* \"#utility.yul\":7276:7298   */\n      add\n        /* \"#utility.yul\":7245:7308   */\n      tag_94\n      jump\t// in\n    tag_194:\n        /* \"#utility.yul\":7235:7308   */\n      swap3\n      pop\n        /* \"#utility.yul\":7030:7318   */\n      pop\n        /* \"#utility.yul\":7357:7359   */\n      0x40\n        /* \"#utility.yul\":7383:7436   */\n      tag_195\n        /* \"#utility.yul\":7428:7435   */\n      dup7\n        /* \"#utility.yul\":7419:7425   */\n      dup3\n        /* \"#utility.yul\":7408:7417   */\n      dup8\n        /* \"#utility.yul\":7404:7426   */\n      add\n        /* \"#utility.yul\":7383:7436   */\n      tag_80\n      jump\t// in\n    tag_195:\n        /* \"#utility.yul\":7373:7436   */\n      swap2\n      pop\n        /* \"#utility.yul\":7328:7446   */\n      pop\n        /* \"#utility.yul\":6654:7453   */\n      swap3\n      pop\n      swap3\n      pop\n      swap3\n      jump\t// out\n        /* \"#utility.yul\":7459:7639   */\n    tag_95:\n        /* \"#utility.yul\":7507:7584   */\n      0x4e487b7100000000000000000000000000000000000000000000000000000000\n        /* \"#utility.yul\":7504:7505   */\n      0x00\n        /* \"#utility.yul\":7497:7585   */\n      mstore\n        /* \"#utility.yul\":7604:7608   */\n      0x22\n        /* \"#utility.yul\":7601:7602   */\n      0x04\n        /* \"#utility.yul\":7594:7609   */\n      mstore\n        /* \"#utility.yul\":7628:7632   */\n      0x24\n        /* \"#utility.yul\":7625:7626   */\n      0x00\n        /* \"#utility.yul\":7618:7633   */\n      revert\n        /* \"#utility.yul\":7645:7965   */\n    tag_51:\n        /* \"#utility.yul\":7689:7695   */\n      0x00\n        /* \"#utility.yul\":7726:7727   */\n      0x02\n        /* \"#utility.yul\":7720:7724   */\n      dup3\n        /* \"#utility.yul\":7716:7728   */\n      div\n        /* \"#utility.yul\":7706:7728   */\n      swap1\n      pop\n        /* \"#utility.yul\":7773:7774   */\n      0x01\n        /* \"#utility.yul\":7767:7771   */\n      dup3\n        /* \"#utility.yul\":7763:7775   */\n      and\n        /* \"#utility.yul\":7794:7812   */\n      dup1\n        /* \"#utility.yul\":7784:7865   */\n      tag_198\n      jumpi\n        /* \"#utility.yul\":7850:7854   */\n      0x7f\n        /* \"#utility.yul\":7842:7848   */\n      dup3\n        /* \"#utility.yul\":7838:7855   */\n      and\n        /* \"#utility.yul\":7828:7855   */\n      swap2\n      pop\n        /* \"#utility.yul\":7784:7865   */\n    tag_198:\n        /* \"#utility.yul\":7912:7914   */\n      0x20\n        /* \"#utility.yul\":7904:7910   */\n      dup3\n        /* \"#utility.yul\":7901:7915   */\n      lt\n        /* \"#utility.yul\":7881:7899   */\n      dup2\n        /* \"#utility.yul\":7878:7916   */\n      sub\n        /* \"#utility.yul\":7875:7959   */\n      tag_199\n      jumpi\n        /* \"#utility.yul\":7931:7949   */\n      tag_200\n      tag_95\n      jump\t// in\n    tag_200:\n        /* \"#utility.yul\":7875:7959   */\n    tag_199:\n        /* \"#utility.yul\":7696:7965   */\n      pop\n        /* \"#utility.yul\":7645:7965   */\n      swap2\n      swap1\n      pop\n      jump\t// out\n        /* \"#utility.yul\":7971:8112   */\n    tag_96:\n        /* \"#utility.yul\":8020:8024   */\n      0x00\n        /* \"#utility.yul\":8043:8046   */\n      dup2\n        /* \"#utility.yul\":8035:8046   */\n      swap1\n      pop\n        /* \"#utility.yul\":8066:8069   */\n      dup2\n        /* \"#utility.yul\":8063:8064   */\n      0x00\n        /* \"#utility.yul\":8056:8070   */\n      mstore\n        /* \"#utility.yul\":8100:8104   */\n      0x20\n        /* \"#utility.yul\":8097:8098   */\n      0x00\n        /* \"#utility.yul\":8087:8105   */\n      keccak256\n        /* \"#utility.yul\":8079:8105   */\n      swap1\n      pop\n        /* \"#utility.yul\":7971:8112   */\n      swap2\n      swap1\n      pop\n      jump\t// out\n        /* \"#utility.yul\":8118:8211   */\n    tag_97:\n        /* \"#utility.yul\":8155:8161   */\n      0x00\n        /* \"#utility.yul\":8202:8204   */\n      0x20\n        /* \"#utility.yul\":8197:8199   */\n      0x1f\n        /* \"#utility.yul\":8190:8195   */\n      dup4\n        /* \"#utility.yul\":8186:8200   */\n      add\n        /* \"#utility.yul\":8182:8205   */\n      div\n        /* \"#utility.yul\":8172:8205   */\n      swap1\n      pop\n        /* \"#utility.yul\":8118:8211   */\n      swap2\n      swap1\n      pop\n      jump\t// out\n        /* \"#utility.yul\":8217:8324   */\n    tag_98:\n        /* \"#utility.yul\":8261:8269   */\n      0x00\n        /* \"#utility.yul\":8311:8316   */\n      dup3\n        /* \"#utility.yul\":8305:8309   */\n      dup3\n        /* \"#utility.yul\":8301:8317   */\n      shl\n        /* \"#utility.yul\":8280:8317   */\n      swap1\n      pop\n        /* \"#utility.yul\":8217:8324   */\n      swap3\n      swap2\n      pop\n      pop\n      jump\t// out\n        /* \"#utility.yul\":8330:8723   */\n    tag_99:\n        /* \"#utility.yul\":8399:8405   */\n      0x00\n        /* \"#utility.yul\":8449:8450   */\n      0x08\n        /* \"#utility.yul\":8437:8447   */\n      dup4\n        /* \"#utility.yul\":8433:8451   */\n      mul\n        /* \"#utility.yul\":8472:8569   */\n      tag_205\n        /* \"#utility.yul\":8502:8568   */\n      0xffffffffffffffffffffffffffffffffffffffffffffffffffffffffffffffff\n        /* \"#utility.yul\":8491:8500   */\n      dup3\n        /* \"#utility.yul\":8472:8569   */\n      tag_98\n      jump\t// in\n    tag_205:\n        /* \"#utility.yul\":8590:8629   */\n      tag_206\n        /* \"#utility.yul\":8620:8628   */\n      dup7\n        /* \"#utility.yul\":8609:8618   */\n      dup4\n        /* \"#utility.yul\":8590:8629   */\n      tag_98\n      jump\t// in\n    tag_206:\n        /* \"#utility.yul\":8578:8629   */\n      swap6\n      pop\n        /* \"#utility.yul\":8662:8666   */\n      dup1\n        /* \"#utility.yul\":8658:8667   */\n      not\n        /* \"#utility.yul\":8651:8656   */\n      dup5\n        /* \"#utility.yul\":8647:8668   */\n      and\n        /* \"#utility.yul\":8638:8668   */\n      swap4\n      pop\n        /* \"#utility.yul\":8711:8715   */\n      dup1\n        /* \"#utility.yul\":8701:8709   */\n      dup7\n        /* \"#utility.yul\":8697:8716   */\n      and\n        /* \"#utility.yul\":8690:8695   */\n      dup5\n        /* \"#utility.yul\":8687:8717   */\n      or\n        /* \"#utility.yul\":8677:8717   */\n      swap3\n      pop\n        /* \"#utility.yul\":8406:8723   */\n      pop\n      pop\n        /* \"#utility.yul\":8330:8723   */\n      swap4\n      swap3\n      pop\n      pop\n      pop\n      jump\t// out\n        /* \"#utility.yul\":8729:8789   */\n    tag_100:\n        /* \"#utility.yul\":8757:8760   */\n      0x00\n        /* \"#utility.yul\":8778:8783   */\n      dup2\n        /* \"#utility.yul\":8771:8783   */\n      swap1\n      pop\n        /* \"#utility.yul\":8729:8789   */\n      swap2\n      swap1\n      pop\n      jump\t// out\n        /* \"#utility.yul\":8795:8937   */\n    tag_101:\n        /* \"#utility.yul\":8845:8854   */\n      0x00\n        /* \"#utility.yul\":8878:8931   */\n      tag_209\n        /* \"#utility.yul\":8896:8930   */\n      tag_210\n        /* \"#utility.yul\":8905:8929   */\n      tag_211\n        /* \"#utility.yul\":8923:8928   */\n      dup5\n        /* \"#utility.yul\":8905:8929   */\n      tag_74\n      jump\t// in\n    tag_211:\n        /* \"#utility.yul\":8896:8930   */\n      tag_100\n      jump\t// in\n    tag_210:\n        /* \"#utility.yul\":8878:8931   */\n      tag_74\n      jump\t// in\n    tag_209:\n        /* \"#utility.yul\":8865:8931   */\n      swap1\n      pop\n        /* \"#utility.yul\":8795:8937   */\n      swap2\n      swap1\n      pop\n      jump\t// out\n        /* \"#utility.yul\":8943:9018   */\n    tag_102:\n        /* \"#utility.yul\":8986:8989   */\n      0x00\n        /* \"#utility.yul\":9007:9012   */\n      dup2\n        /* \"#utility.yul\":9000:9012   */\n      swap1\n      pop\n        /* \"#utility.yul\":8943:9018   */\n      swap2\n      swap1\n      pop\n      jump\t// out\n        /* \"#utility.yul\":9024:9293   */\n    tag_103:\n        /* \"#utility.yul\":9134:9173   */\n      tag_214\n        /* \"#utility.yul\":9165:9172   */\n      dup4\n        /* \"#utility.yul\":9134:9173   */\n      tag_101\n      jump\t// in\n    tag_214:\n        /* \"#utility.yul\":9195:9286   */\n      tag_215\n        /* \"#utility.yul\":9244:9285   */\n      tag_216\n        /* \"#utility.yul\":9268:9284   */\n      dup3\n        /* \"#utility.yul\":9244:9285   */\n      tag_102\n      jump\t// in\n    tag_216:\n        /* \"#utility.yul\":9236:9242   */\n      dup5\n        /* \"#utility.yul\":9229:9233   */\n      dup5\n        /* \"#utility.yul\":9223:9234   */\n      sload\n        /* \"#utility.yul\":9195:9286   */\n      tag_99\n      jump\t// in\n    tag_215:\n        /* \"#utility.yul\":9189:9193   */\n      dup3\n        /* \"#utility.yul\":9182:9287   */\n      sstore\n        /* \"#utility.yul\":9100:9293   */\n      pop\n        /* \"#utility.yul\":9024:9293   */\n      pop\n      pop\n      pop\n      jump\t// out\n        /* \"#utility.yul\":9299:9372   */\n    tag_104:\n        /* \"#utility.yul\":9344:9347   */\n      0x00\n        /* \"#utility.yul\":9299:9372   */\n      swap1\n      jump\t// out\n        /* \"#utility.yul\":9378:9567   */\n    tag_105:\n        /* \"#utility.yul\":9455:9487   */\n      tag_219\n      tag_104\n      jump\t// in\n    tag_219:\n        /* \"#utility.yul\":9496:9561   */\n      tag_220\n        /* \"#utility.yul\":9554:9560   */\n      dup2\n        /* \"#utility.yul\":9546:9552   */\n      dup5\n        /* \"#utility.yul\":9540:9544   */\n      dup5\n        /* \"#utility.yul\":9496:9561   */\n      tag_103\n      jump\t// in\n    tag_220:\n        /* \"#utility.yul\":9431:9567   */\n      pop\n        /* \"#utility.yul\":9378:9567   */\n      pop\n      pop\n      jump\t// out\n        /* \"#utility.yul\":9573:9759   */\n    tag_106:\n        /* \"#utility.yul\":9633:9753   */\n    tag_222:\n        /* \"#utility.yul\":9650:9653   */\n      dup2\n        /* \"#utility.yul\":9643:9648   */\n      dup2\n        /* \"#utility.yul\":9640:9654   */\n      lt\n        /* \"#utility.yul\":9633:9753   */\n      iszero\n      tag_224\n      jumpi\n        /* \"#utility.yul\":9704:9743   */\n      tag_225\n        /* \"#utility.yul\":9741:9742   */\n      0x00\n        /* \"#utility.yul\":9734:9739   */\n      dup3\n        /* \"#utility.yul\":9704:9743   */\n      tag_105\n      jump\t// in\n    tag_225:\n        /* \"#utility.yul\":9677:9678   */\n      0x01\n        /* \"#utility.yul\":9670:9675   */\n      dup2\n        /* \"#utility.yul\":9666:9679   */\n      add\n        /* \"#utility.yul\":9657:9679   */\n      swap1\n      pop\n        /* \"#utility.yul\":9633:9753   */\n      jump(tag_222)\n    tag_224:\n        /* \"#utility.yul\":9573:9759   */\n      pop\n      pop\n      jump\t// out\n        /* \"#utility.yul\":9765:10308   */\n    tag_107:\n        /* \"#utility.yul\":9866:9868   */\n      0x1f\n        /* \"#utility.yul\":9861:9864   */\n      dup3\n        /* \"#utility.yul\":9858:9869   */\n      gt\n        /* \"#utility.yul\":9855:10301   */\n      iszero\n      tag_227\n      jumpi\n        /* \"#utility.yul\":9900:9938   */\n      tag_228\n        /* \"#utility.yul\":9932:9937   */\n      dup2\n        /* \"#utility.yul\":9900:9938   */\n      tag_96\n      jump\t// in\n    tag_228:\n        /* \"#utility.yul\":9984:10013   */\n      tag_229\n        /* \"#utility.yul\":10002:10012   */\n      dup5\n        /* \"#utility.yul\":9984:10013   */\n      tag_97\n      jump\t// in\n    tag_229:\n        /* \"#utility.yul\":9974:9982   */\n      dup2\n        /* \"#utility.yul\":9970:10014   */\n      add\n        /* \"#utility.yul\":10167:10169   */\n      0x20\n        /* \"#utility.yul\":10155:10165   */\n      dup6\n        /* \"#utility.yul\":10152:10170   */\n      lt\n        /* \"#utility.yul\":10149:10198   */\n      iszero\n      tag_230\n      jumpi\n        /* \"#utility.yul\":10188:10196   */\n      dup2\n        /* \"#utility.yul\":10173:10196   */\n      swap1\n      pop\n        /* \"#utility.yul\":10149:10198   */\n    tag_230:\n        /* \"#utility.yul\":10211:10291   */\n      tag_231\n        /* \"#utility.yul\":10267:10289   */\n      tag_232\n        /* \"#utility.yul\":10285:10288   */\n      dup6\n        /* \"#utility.yul\":10267:10289   */\n      tag_97\n      jump\t// in\n    tag_232:\n        /* \"#utility.yul\":10257:10265   */\n      dup4\n        /* \"#utility.yul\":10253:10290   */\n      add\n        /* \"#utility.yul\":10240:10251   */\n      dup3\n        /* \"#utility.yul\":10211:10291   */\n      tag_106\n      jump\t// in\n    tag_231:\n        /* \"#utility.yul\":9870:10301   */\n      pop\n      pop\n        /* \"#utility.yul\":9855:10301   */\n    tag_227:\n        /* \"#utility.yul\":9765:10308   */\n      pop\n      pop\n      pop\n      jump\t// out\n        /* \"#utility.yul\":10314:10431   */\n    tag_108:\n        /* \"#utility.yul\":10368:10376   */\n      0x00\n        /* \"#utility.yul\":10418:10423   */\n      dup3\n        /* \"#utility.yul\":10412:10416   */\n      dup3\n        /* \"#utility.yul\":10408:10424   */\n      shr\n        /* \"#utility.yul\":10387:10424   */\n      swap1\n      pop\n        /* \"#utility.yul\":10314:10431   */\n      swap3\n      swap2\n      pop\n      pop\n      jump\t// out\n        /* \"#utility.yul\":10437:10606   */\n    tag_109:\n        /* \"#utility.yul\":10481:10487   */\n      0x00\n        /* \"#utility.yul\":10514:10565   */\n      tag_235\n        /* \"#utility.yul\":10562:10563   */\n      0x00\n        /* \"#utility.yul\":10558:10564   */\n      not\n        /* \"#utility.yul\":10550:10555   */\n      dup5\n        /* \"#utility.yul\":10547:10548   */\n      0x08\n        /* \"#utility.yul\":10543:10556   */\n      mul\n        /* \"#utility.yul\":10514:10565   */\n      tag_108\n      jump\t// in\n    tag_235:\n        /* \"#utility.yul\":10510:10566   */\n      not\n        /* \"#utility.yul\":10595:10599   */\n      dup1\n        /* \"#utility.yul\":10589:10593   */\n      dup4\n        /* \"#utility.yul\":10585:10600   */\n      and\n        /* \"#utility.yul\":10575:10600   */\n      swap2\n      pop\n        /* \"#utility.yul\":10488:10606   */\n      pop\n        /* \"#utility.yul\":10437:10606   */\n      swap3\n      swap2\n      pop\n      pop\n      jump\t// out\n        /* \"#utility.yul\":10611:10906   */\n    tag_110:\n        /* \"#utility.yul\":10687:10691   */\n      0x00\n        /* \"#utility.yul\":10833:10862   */\n      tag_237\n        /* \"#utility.yul\":10858:10861   */\n      dup4\n        /* \"#utility.yul\":10852:10856   */\n      dup4\n        /* \"#utility.yul\":10833:10862   */\n      tag_109\n      jump\t// in\n    tag_237:\n        /* \"#utility.yul\":10825:10862   */\n      swap2\n      pop\n        /* \"#utility.yul\":10895:10898   */\n      dup3\n        /* \"#utility.yul\":10892:10893   */\n      0x02\n        /* \"#utility.yul\":10888:10899   */\n      mul\n        /* \"#utility.yul\":10882:10886   */\n      dup3\n        /* \"#utility.yul\":10879:10900   */\n      or\n        /* \"#utility.yul\":10871:10900   */\n      swap1\n      pop\n        /* \"#utility.yul\":10611:10906   */\n      swap3\n      swap2\n      pop\n      pop\n      jump\t// out\n        /* \"#utility.yul\":10911:12306   */\n    tag_67:\n        /* \"#utility.yul\":11028:11065   */\n      tag_239\n        /* \"#utility.yul\":11061:11064   */\n      dup3\n        /* \"#utility.yul\":11028:11065   */\n      tag_81\n      jump\t// in\n    tag_239:\n        /* \"#utility.yul\":11130:11148   */\n      0xffffffffffffffff\n        /* \"#utility.yul\":11122:11128   */\n      dup2\n        /* \"#utility.yul\":11119:11149   */\n      gt\n        /* \"#utility.yul\":11116:11172   */\n      iszero\n      tag_240\n      jumpi\n        /* \"#utility.yul\":11152:11170   */\n      tag_241\n      tag_88\n      jump\t// in\n    tag_241:\n        /* \"#utility.yul\":11116:11172   */\n    tag_240:\n        /* \"#utility.yul\":11196:11234   */\n      tag_242\n        /* \"#utility.yul\":11228:11232   */\n      dup3\n        /* \"#utility.yul\":11222:11233   */\n      sload\n        /* \"#utility.yul\":11196:11234   */\n      tag_51\n      jump\t// in\n    tag_242:\n        /* \"#utility.yul\":11281:11348   */\n      tag_243\n        /* \"#utility.yul\":11341:11347   */\n      dup3\n        /* \"#utility.yul\":11333:11339   */\n      dup3\n        /* \"#utility.yul\":11327:11331   */\n      dup6\n        /* \"#utility.yul\":11281:11348   */\n      tag_107\n      jump\t// in\n    tag_243:\n        /* \"#utility.yul\":11375:11376   */\n      0x00\n        /* \"#utility.yul\":11399:11403   */\n      0x20\n        /* \"#utility.yul\":11386:11403   */\n      swap1\n      pop\n        /* \"#utility.yul\":11431:11433   */\n      0x1f\n        /* \"#utility.yul\":11423:11429   */\n      dup4\n        /* \"#utility.yul\":11420:11434   */\n      gt\n        /* \"#utility.yul\":11448:11449   */\n      0x01\n        /* \"#utility.yul\":11443:12061   */\n      dup2\n      eq\n      tag_245\n      jumpi\n        /* \"#utility.yul\":12105:12106   */\n      0x00\n        /* \"#utility.yul\":12122:12128   */\n      dup5\n        /* \"#utility.yul\":12119:12196   */\n      iszero\n      tag_246\n      jumpi\n        /* \"#utility.yul\":12171:12180   */\n      dup3\n        /* \"#utility.yul\":12166:12169   */\n      dup8\n        /* \"#utility.yul\":12162:12181   */\n      add\n        /* \"#utility.yul\":12156:12182   */\n      mload\n        /* \"#utility.yul\":12147:12182   */\n      swap1\n      pop\n        /* \"#utility.yul\":12119:12196   */\n    tag_246:\n        /* \"#utility.yul\":12222:12289   */\n      tag_247\n        /* \"#utility.yul\":12282:12288   */\n      dup6\n        /* \"#utility.yul\":12275:12280   */\n      dup3\n        /* \"#utility.yul\":12222:12289   */\n      tag_110\n      jump\t// in\n    tag_247:\n        /* \"#utility.yul\":12216:12220   */\n      dup7\n        /* \"#utility.yul\":12209:12290   */\n      sstore\n        /* \"#utility.yul\":12078:12300   */\n      pop\n        /* \"#utility.yul\":11413:12300   */\n      jump(tag_244)\n        /* \"#utility.yul\":11443:12061   */\n    tag_245:\n        /* \"#utility.yul\":11495:11499   */\n      0x1f\n        /* \"#utility.yul\":11491:11500   */\n      not\n        /* \"#utility.yul\":11483:11489   */\n      dup5\n        /* \"#utility.yul\":11479:11501   */\n      and\n        /* \"#utility.yul\":11529:11566   */\n      tag_248\n        /* \"#utility.yul\":11561:11565   */\n      dup7\n        /* \"#utility.yul\":11529:11566   */\n      tag_96\n      jump\t// in\n    tag_248:\n        /* \"#utility.yul\":11588:11589   */\n      0x00\n        /* \"#utility.yul\":11602:11810   */\n    tag_249:\n        /* \"#utility.yul\":11616:11623   */\n      dup3\n        /* \"#utility.yul\":11613:11614   */\n      dup2\n        /* \"#utility.yul\":11610:11624   */\n      lt\n        /* \"#utility.yul\":11602:11810   */\n      iszero\n      tag_251\n      jumpi\n        /* \"#utility.yul\":11695:11704   */\n      dup5\n        /* \"#utility.yul\":11690:11693   */\n      dup10\n        /* \"#utility.yul\":11686:11705   */\n      add\n        /* \"#utility.yul\":11680:11706   */\n      mload\n        /* \"#utility.yul\":11672:11678   */\n      dup3\n        /* \"#utility.yul\":11665:11707   */\n      sstore\n        /* \"#utility.yul\":11746:11747   */\n      0x01\n        /* \"#utility.yul\":11738:11744   */\n      dup3\n        /* \"#utility.yul\":11734:11748   */\n      add\n        /* \"#utility.yul\":11724:11748   */\n      swap2\n      pop\n        /* \"#utility.yul\":11793:11795   */\n      0x20\n        /* \"#utility.yul\":11782:11791   */\n      dup6\n        /* \"#utility.yul\":11778:11796   */\n      add\n        /* \"#utility.yul\":11765:11796   */\n      swap5\n      pop\n        /* \"#utility.yul\":11639:11643   */\n      0x20\n        /* \"#utility.yul\":11636:11637   */\n      dup2\n        /* \"#utility.yul\":11632:11644   */\n      add\n        /* \"#utility.yul\":11627:11644   */\n      swap1\n      pop\n        /* \"#utility.yul\":11602:11810   */\n      jump(tag_249)\n    tag_251:\n        /* \"#utility.yul\":11838:11844   */\n      dup7\n        /* \"#utility.yul\":11829:11836   */\n      dup4\n        /* \"#utility.yul\":11826:11845   */\n      lt\n        /* \"#utility.yul\":11823:12002   */\n      iszero\n      tag_252\n      jumpi\n        /* \"#utility.yul\":11896:11905   */\n      dup5\n        /* \"#utility.yul\":11891:11894   */\n      dup10\n        /* \"#utility.yul\":11887:11906   */\n      add\n        /* \"#utility.yul\":11881:11907   */\n      mload\n        /* \"#utility.yul\":11939:11987   */\n      tag_253\n        /* \"#utility.yul\":11981:11985   */\n      0x1f\n        /* \"#utility.yul\":11973:11979   */\n      dup10\n        /* \"#utility.yul\":11969:11986   */\n      and\n        /* \"#utility.yul\":11958:11967   */\n      dup3\n        /* \"#utility.yul\":11939:11987   */\n      tag_109\n      jump\t// in\n    tag_253:\n        /* \"#utility.yul\":11931:11937   */\n      dup4\n        /* \"#utility.yul\":11924:11988   */\n      sstore\n        /* \"#utility.yul\":11846:12002   */\n      pop\n        /* \"#utility.yul\":11823:12002   */\n    tag_252:\n        /* \"#utility.yul\":12048:12049   */\n      0x01\n        /* \"#utility.yul\":12044:12045   */\n      0x02\n        /* \"#utility.yul\":12036:12042   */\n      dup9\n        /* \"#utility.yul\":12032:12046   */\n      mul\n        /* \"#utility.yul\":12028:12050   */\n      add\n        /* \"#utility.yul\":12022:12026   */\n      dup9\n        /* \"#utility.yul\":12015:12051   */\n      sstore\n        /* \"#utility.yul\":11450:12061   */\n      pop\n      pop\n      pop\n        /* \"#utility.yul\":11413:12300   */\n    tag_244:\n      pop\n        /* \"#utility.yul\":11003:12306   */\n      pop\n      pop\n      pop\n        /* \"#utility.yul\":10911:12306   */\n      pop\n      pop\n      jump\t// out\n        /* \"#utility.yul\":12312:12460   */\n    tag_111:\n        /* \"#utility.yul\":12414:12425   */\n      0x00\n        /* \"#utility.yul\":12451:12454   */\n      dup2\n        /* \"#utility.yul\":12436:12454   */\n      swap1\n      pop\n        /* \"#utility.yul\":12312:12460   */\n      swap3\n      swap2\n      pop\n      pop\n      jump\t// out\n        /* \"#utility.yul\":12466:12856   */\n    tag_112:\n        /* \"#utility.yul\":12572:12575   */\n      0x00\n        /* \"#utility.yul\":12600:12639   */\n      tag_256\n        /* \"#utility.yul\":12633:12638   */\n      dup3\n        /* \"#utility.yul\":12600:12639   */\n      tag_81\n      jump\t// in\n    tag_256:\n        /* \"#utility.yul\":12655:12744   */\n      tag_257\n        /* \"#utility.yul\":12737:12743   */\n      dup2\n        /* \"#utility.yul\":12732:12735   */\n      dup6\n        /* \"#utility.yul\":12655:12744   */\n      tag_111\n      jump\t// in\n    tag_257:\n        /* \"#utility.yul\":12648:12744   */\n      swap4\n      pop\n        /* \"#utility.yul\":12753:12818   */\n      tag_258\n        /* \"#utility.yul\":12811:12817   */\n      dup2\n        /* \"#utility.yul\":12806:12809   */\n      dup6\n        /* \"#utility.yul\":12799:12803   */\n      0x20\n        /* \"#utility.yul\":12792:12797   */\n      dup7\n        /* \"#utility.yul\":12788:12804   */\n      add\n        /* \"#utility.yul\":12753:12818   */\n      tag_83\n      jump\t// in\n    tag_258:\n        /* \"#utility.yul\":12843:12849   */\n      dup1\n        /* \"#utility.yul\":12838:12841   */\n      dup5\n        /* \"#utility.yul\":12834:12850   */\n      add\n        /* \"#utility.yul\":12827:12850   */\n      swap2\n      pop\n        /* \"#utility.yul\":12576:12856   */\n      pop\n        /* \"#utility.yul\":12466:12856   */\n      swap3\n      swap2\n      pop\n      pop\n      jump\t// out\n        /* \"#utility.yul\":12862:13137   */\n    tag_69:\n        /* \"#utility.yul\":12994:12997   */\n      0x00\n        /* \"#utility.yul\":13016:13111   */\n      tag_260\n        /* \"#utility.yul\":13107:13110   */\n      dup3\n        /* \"#utility.yul\":13098:13104   */\n      dup5\n        /* \"#utility.yul\":13016:13111   */\n      tag_112\n      jump\t// in\n    tag_260:\n        /* \"#utility.yul\":13009:13111   */\n      swap2\n      pop\n        /* \"#utility.yul\":13128:13131   */\n      dup2\n        /* \"#utility.yul\":13121:13131   */\n      swap1\n      pop\n        /* \"#utility.yul\":12862:13137   */\n      swap3\n      swap2\n      pop\n      pop\n      jump\t// out\n\n    auxdata: 0xa2646970667358221220a1109aeaa6452190bb946c4aa4291a51c552ba89c5f0eccd41f8952382a0368e64736f6c63430008130033\n}\n",
				"bytecode": {
					"linkReferences": {},
					"object": "608060405234801561001057600080fd5b50610c21806100206000396000f3fe608060405234801561001057600080fd5b50600436106100885760003560e01c80636f760f411161005b5780636f760f411461012a5780638bab8dd514610146578063a226c34d14610176578063ab2a45e9146101a657610088565b80632e64cec11461008d5780632ebce631146100ab57806356af3632146100dc5780636057361d1461010e575b600080fd5b6100956101c2565b6040516100a291906104eb565b60405180910390f35b6100c560048036038101906100c09190610546565b6101cb565b6040516100d3929190610603565b60405180910390f35b6100f660048036038101906100f19190610546565b610287565b60405161010593929190610633565b60405180910390f35b61012860048036038101906101239190610546565b610349565b005b610144600480360381019061013f91906107a6565b610353565b005b610160600480360381019061015b9190610802565b6103dc565b60405161016d91906104eb565b60405180910390f35b610190600480360381019061018b9190610802565b61040a565b60405161019d91906104eb565b60405180910390f35b6101c060048036038101906101bb919061084b565b610438565b005b60008054905090565b600181815481106101db57600080fd5b9060005260206000209060020201600091509050806000015490806001018054610204906108e9565b80601f0160208091040260200160405190810160405280929190818152602001828054610230906108e9565b801561027d5780601f106102525761010080835404028352916020019161027d565b820191906000526020600020905b81548152906001019060200180831161026057829003601f168201915b5050505050905082565b6003818154811061029757600080fd5b90600052602060002090600302016000915090508060000154908060010180546102c0906108e9565b80601f01602080910402602001604051908101604052809291908181526020018280546102ec906108e9565b80156103395780601f1061030e57610100808354040283529160200191610339565b820191906000526020600020905b81548152906001019060200180831161031c57829003601f168201915b5050505050908060020154905083565b8060008190555050565b600160405180604001604052808381526020018481525090806001815401808255809150506001900390600052602060002090600202016000909190919091506000820151816000015560208201518160010190816103b29190610ac6565b505050806002836040516103c69190610bd4565b9081526020016040518091039020819055505050565b6002818051602081018201805184825260208301602085012081835280955050505050506000915090505481565b6004818051602081018201805184825260208301602085012081835280955050505050506000915090505481565b6003604051806060016040528085815260200184815260200183815250908060018154018082558091505060019003906000526020600020906003020160009091909190915060008201518160000155602082015181600101908161049d9190610ac6565b50604082015181600201555050826004836040516104bb9190610bd4565b908152602001604051809103902081905550505050565b6000819050919050565b6104e5816104d2565b82525050565b600060208201905061050060008301846104dc565b92915050565b6000604051905090565b600080fd5b600080fd5b610523816104d2565b811461052e57600080fd5b50565b6000813590506105408161051a565b92915050565b60006020828403121561055c5761055b610510565b5b600061056a84828501610531565b91505092915050565b600081519050919050565b600082825260208201905092915050565b60005b838110156105ad578082015181840152602081019050610592565b60008484015250505050565b6000601f19601f8301169050919050565b60006105d582610573565b6105df818561057e565b93506105ef81856020860161058f565b6105f8816105b9565b840191505092915050565b600060408201905061061860008301856104dc565b818103602083015261062a81846105ca565b90509392505050565b600060608201905061064860008301866104dc565b818103602083015261065a81856105ca565b905061066960408301846104dc565b949350505050565b600080fd5b600080fd5b7f4e487b7100000000000000000000000000000000000000000000000000000000600052604160045260246000fd5b6106b3826105b9565b810181811067ffffffffffffffff821117156106d2576106d161067b565b5b80604052505050565b60006106e5610506565b90506106f182826106aa565b919050565b600067ffffffffffffffff8211156107115761071061067b565b5b61071a826105b9565b9050602081019050919050565b82818337600083830152505050565b6000610749610744846106f6565b6106db565b90508281526020810184848401111561076557610764610676565b5b610770848285610727565b509392505050565b600082601f83011261078d5761078c610671565b5b813561079d848260208601610736565b91505092915050565b600080604083850312156107bd576107bc610510565b5b600083013567ffffffffffffffff8111156107db576107da610515565b5b6107e785828601610778565b92505060206107f885828601610531565b9150509250929050565b60006020828403121561081857610817610510565b5b600082013567ffffffffffffffff81111561083657610835610515565b5b61084284828501610778565b91505092915050565b60008060006060848603121561086457610863610510565b5b600061087286828701610531565b935050602084013567ffffffffffffffff81111561089357610892610515565b5b61089f86828701610778565b92505060406108b086828701610531565b9150509250925092565b7f4e487b7100000000000000000000000000000000000000000000000000000000600052602260045260246000fd5b6000600282049050600182168061090157607f821691505b602082108103610914576109136108ba565b5b50919050565b60008190508160005260206000209050919050565b60006020601f8301049050919050565b600082821b905092915050565b60006008830261097c7fffffffffffffffffffffffffffffffffffffffffffffffffffffffffffffffff8261093f565b610986868361093f565b95508019841693508086168417925050509392505050565b6000819050919050565b60006109c36109be6109b9846104d2565b61099e565b6104d2565b9050919050565b6000819050919050565b6109dd836109a8565b6109f16109e9826109ca565b84845461094c565b825550505050565b600090565b610a066109f9565b610a118184846109d4565b505050565b5b81811015610a3557610a2a6000826109fe565b600181019050610a17565b5050565b601f821115610a7a57610a4b8161091a565b610a548461092f565b81016020851015610a63578190505b610a77610a6f8561092f565b830182610a16565b50505b505050565b600082821c905092915050565b6000610a9d60001984600802610a7f565b1980831691505092915050565b6000610ab68383610a8c565b9150826002028217905092915050565b610acf82610573565b67ffffffffffffffff811115610ae857610ae761067b565b5b610af282546108e9565b610afd828285610a39565b600060209050601f831160018114610b305760008415610b1e578287015190505b610b288582610aaa565b865550610b90565b601f198416610b3e8661091a565b60005b82811015610b6657848901518255600182019150602085019450602081019050610b41565b86831015610b835784890151610b7f601f891682610a8c565b8355505b6001600288020188555050505b505050505050565b600081905092915050565b6000610bae82610573565b610bb88185610b98565b9350610bc881856020860161058f565b80840191505092915050565b6000610be08284610ba3565b91508190509291505056fea2646970667358221220a1109aeaa6452190bb946c4aa4291a51c552ba89c5f0eccd41f8952382a0368e64736f6c63430008130033",
					"opcodes": "PUSH1 0x80 PUSH1 0x40 MSTORE CALLVALUE DUP1 ISZERO PUSH2 0x10 JUMPI PUSH1 0x0 DUP1 REVERT JUMPDEST POP PUSH2 0xC21 DUP1 PUSH2 0x20 PUSH1 0x0 CODECOPY PUSH1 0x0 RETURN INVALID PUSH1 0x80 PUSH1 0x40 MSTORE CALLVALUE DUP1 ISZERO PUSH2 0x10 JUMPI PUSH1 0x0 DUP1 REVERT JUMPDEST POP PUSH1 0x4 CALLDATASIZE LT PUSH2 0x88 JUMPI PUSH1 0x0 CALLDATALOAD PUSH1 0xE0 SHR DUP1 PUSH4 0x6F760F41 GT PUSH2 0x5B JUMPI DUP1 PUSH4 0x6F760F41 EQ PUSH2 0x12A JUMPI DUP1 PUSH4 0x8BAB8DD5 EQ PUSH2 0x146 JUMPI DUP1 PUSH4 0xA226C34D EQ PUSH2 0x176 JUMPI DUP1 PUSH4 0xAB2A45E9 EQ PUSH2 0x1A6 JUMPI PUSH2 0x88 JUMP JUMPDEST DUP1 PUSH4 0x2E64CEC1 EQ PUSH2 0x8D JUMPI DUP1 PUSH4 0x2EBCE631 EQ PUSH2 0xAB JUMPI DUP1 PUSH4 0x56AF3632 EQ PUSH2 0xDC JUMPI DUP1 PUSH4 0x6057361D EQ PUSH2 0x10E JUMPI JUMPDEST PUSH1 0x0 DUP1 REVERT JUMPDEST PUSH2 0x95 PUSH2 0x1C2 JUMP JUMPDEST PUSH1 0x40 MLOAD PUSH2 0xA2 SWAP2 SWAP1 PUSH2 0x4EB JUMP JUMPDEST PUSH1 0x40 MLOAD DUP1 SWAP2 SUB SWAP1 RETURN JUMPDEST PUSH2 0xC5 PUSH1 0x4 DUP1 CALLDATASIZE SUB DUP2 ADD SWAP1 PUSH2 0xC0 SWAP2 SWAP1 PUSH2 0x546 JUMP JUMPDEST PUSH2 0x1CB JUMP JUMPDEST PUSH1 0x40 MLOAD PUSH2 0xD3 SWAP3 SWAP2 SWAP1 PUSH2 0x603 JUMP JUMPDEST PUSH1 0x40 MLOAD DUP1 SWAP2 SUB SWAP1 RETURN JUMPDEST PUSH2 0xF6 PUSH1 0x4 DUP1 CALLDATASIZE SUB DUP2 ADD SWAP1 PUSH2 0xF1 SWAP2 SWAP1 PUSH2 0x546 JUMP JUMPDEST PUSH2 0x287 JUMP JUMPDEST PUSH1 0x40 MLOAD PUSH2 0x105 SWAP4 SWAP3 SWAP2 SWAP1 PUSH2 0x633 JUMP JUMPDEST PUSH1 0x40 MLOAD DUP1 SWAP2 SUB SWAP1 RETURN JUMPDEST PUSH2 0x128 PUSH1 0x4 DUP1 CALLDATASIZE SUB DUP2 ADD SWAP1 PUSH2 0x123 SWAP2 SWAP1 PUSH2 0x546 JUMP JUMPDEST PUSH2 0x349 JUMP JUMPDEST STOP JUMPDEST PUSH2 0x144 PUSH1 0x4 DUP1 CALLDATASIZE SUB DUP2 ADD SWAP1 PUSH2 0x13F SWAP2 SWAP1 PUSH2 0x7A6 JUMP JUMPDEST PUSH2 0x353 JUMP JUMPDEST STOP JUMPDEST PUSH2 0x160 PUSH1 0x4 DUP1 CALLDATASIZE SUB DUP2 ADD SWAP1 PUSH2 0x15B SWAP2 SWAP1 PUSH2 0x802 JUMP JUMPDEST PUSH2 0x3DC JUMP JUMPDEST PUSH1 0x40 MLOAD PUSH2 0x16D SWAP2 SWAP1 PUSH2 0x4EB JUMP JUMPDEST PUSH1 0x40 MLOAD DUP1 SWAP2 SUB SWAP1 RETURN JUMPDEST PUSH2 0x190 PUSH1 0x4 DUP1 CALLDATASIZE SUB DUP2 ADD SWAP1 PUSH2 0x18B SWAP2 SWAP1 PUSH2 0x802 JUMP JUMPDEST PUSH2 0x40A JUMP JUMPDEST PUSH1 0x40 MLOAD PUSH2 0x19D SWAP2 SWAP1 PUSH2 0x4EB JUMP JUMPDEST PUSH1 0x40 MLOAD DUP1 SWAP2 SUB SWAP1 RETURN JUMPDEST PUSH2 0x1C0 PUSH1 0x4 DUP1 CALLDATASIZE SUB DUP2 ADD SWAP1 PUSH2 0x1BB SWAP2 SWAP1 PUSH2 0x84B JUMP JUMPDEST PUSH2 0x438 JUMP JUMPDEST STOP JUMPDEST PUSH1 0x0 DUP1 SLOAD SWAP1 POP SWAP1 JUMP JUMPDEST PUSH1 0x1 DUP2 DUP2 SLOAD DUP2 LT PUSH2 0x1DB JUMPI PUSH1 0x0 DUP1 REVERT JUMPDEST SWAP1 PUSH1 0x0 MSTORE PUSH1 0x20 PUSH1 0x0 KECCAK256 SWAP1 PUSH1 0x2 MUL ADD PUSH1 0x0 SWAP2 POP SWAP1 POP DUP1 PUSH1 0x0 ADD SLOAD SWAP1 DUP1 PUSH1 0x1 ADD DUP1 SLOAD PUSH2 0x204 SWAP1 PUSH2 0x8E9 JUMP JUMPDEST DUP1 PUSH1 0x1F ADD PUSH1 0x20 DUP1 SWAP2 DIV MUL PUSH1 0x20 ADD PUSH1 0x40 MLOAD SWAP1 DUP2 ADD PUSH1 0x40 MSTORE DUP1 SWAP3 SWAP2 SWAP1 DUP2 DUP2 MSTORE PUSH1 0x20 ADD DUP3 DUP1 SLOAD PUSH2 0x230 SWAP1 PUSH2 0x8E9 JUMP JUMPDEST DUP1 ISZERO PUSH2 0x27D JUMPI DUP1 PUSH1 0x1F LT PUSH2 0x252 JUMPI PUSH2 0x100 DUP1 DUP4 SLOAD DIV MUL DUP4 MSTORE SWAP2 PUSH1 0x20 ADD SWAP2 PUSH2 0x27D JUMP JUMPDEST DUP3 ADD SWAP2 SWAP1 PUSH1 0x0 MSTORE PUSH1 0x20 PUSH1 0x0 KECCAK256 SWAP1 JUMPDEST DUP2 SLOAD DUP2 MSTORE SWAP1 PUSH1 0x1 ADD SWAP1 PUSH1 0x20 ADD DUP1 DUP4 GT PUSH2 0x260 JUMPI DUP3 SWAP1 SUB PUSH1 0x1F AND DUP3 ADD SWAP2 JUMPDEST POP POP POP POP POP SWAP1 POP DUP3 JUMP JUMPDEST PUSH1 0x3 DUP2 DUP2 SLOAD DUP2 LT PUSH2 0x297 JUMPI PUSH1 0x0 DUP1 REVERT JUMPDEST SWAP1 PUSH1 0x0 MSTORE PUSH1 0x20 PUSH1 0x0 KECCAK256 SWAP1 PUSH1 0x3 MUL ADD PUSH1 0x0 SWAP2 POP SWAP1 POP DUP1 PUSH1 0x0 ADD SLOAD SWAP1 DUP1 PUSH1 0x1 ADD DUP1 SLOAD PUSH2 0x2C0 SWAP1 PUSH2 0x8E9 JUMP JUMPDEST DUP1 PUSH1 0x1F ADD PUSH1 0x20 DUP1 SWAP2 DIV MUL PUSH1 0x20 ADD PUSH1 0x40 MLOAD SWAP1 DUP2 ADD PUSH1 0x40 MSTORE DUP1 SWAP3 SWAP2 SWAP1 DUP2 DUP2 MSTORE PUSH1 0x20 ADD DUP3 DUP1 SLOAD PUSH2 0x2EC SWAP1 PUSH2 0x8E9 JUMP JUMPDEST DUP1 ISZERO PUSH2 0x339 JUMPI DUP1 PUSH1 0x1F LT PUSH2 0x30E JUMPI PUSH2 0x100 DUP1 DUP4 SLOAD DIV MUL DUP4 MSTORE SWAP2 PUSH1 0x20 ADD SWAP2 PUSH2 0x339 JUMP JUMPDEST DUP3 ADD SWAP2 SWAP1 PUSH1 0x0 MSTORE PUSH1 0x20 PUSH1 0x0 KECCAK256 SWAP1 JUMPDEST DUP2 SLOAD DUP2 MSTORE SWAP1 PUSH1 0x1 ADD SWAP1 PUSH1 0x20 ADD DUP1 DUP4 GT PUSH2 0x31C JUMPI DUP3 SWAP1 SUB PUSH1 0x1F AND DUP3 ADD SWAP2 JUMPDEST POP POP POP POP POP SWAP1 DUP1 PUSH1 0x2 ADD SLOAD SWAP1 POP DUP4 JUMP JUMPDEST DUP1 PUSH1 0x0 DUP2 SWAP1 SSTORE POP POP JUMP JUMPDEST PUSH1 0x1 PUSH1 0x40 MLOAD DUP1 PUSH1 0x40 ADD PUSH1 0x40 MSTORE DUP1 DUP4 DUP2 MSTORE PUSH1 0x20 ADD DUP5 DUP2 MSTORE POP SWAP1 DUP1 PUSH1 0x1 DUP2 SLOAD ADD DUP1 DUP3 SSTORE DUP1 SWAP2 POP POP PUSH1 0x1 SWAP1 SUB SWAP1 PUSH1 0x0 MSTORE PUSH1 0x20 PUSH1 0x0 KECCAK256 SWAP1 PUSH1 0x2 MUL ADD PUSH1 0x0 SWAP1 SWAP2 SWAP1 SWAP2 SWAP1 SWAP2 POP PUSH1 0x0 DUP3 ADD MLOAD DUP2 PUSH1 0x0 ADD SSTORE PUSH1 0x20 DUP3 ADD MLOAD DUP2 PUSH1 0x1 ADD SWAP1 DUP2 PUSH2 0x3B2 SWAP2 SWAP1 PUSH2 0xAC6 JUMP JUMPDEST POP POP POP DUP1 PUSH1 0x2 DUP4 PUSH1 0x40 MLOAD PUSH2 0x3C6 SWAP2 SWAP1 PUSH2 0xBD4 JUMP JUMPDEST SWAP1 DUP2 MSTORE PUSH1 0x20 ADD PUSH1 0x40 MLOAD DUP1 SWAP2 SUB SWAP1 KECCAK256 DUP2 SWAP1 SSTORE POP POP POP JUMP JUMPDEST PUSH1 0x2 DUP2 DUP1 MLOAD PUSH1 0x20 DUP2 ADD DUP3 ADD DUP1 MLOAD DUP5 DUP3 MSTORE PUSH1 0x20 DUP4 ADD PUSH1 0x20 DUP6 ADD KECCAK256 DUP2 DUP4 MSTORE DUP1 SWAP6 POP POP POP POP POP POP PUSH1 0x0 SWAP2 POP SWAP1 POP SLOAD DUP2 JUMP JUMPDEST PUSH1 0x4 DUP2 DUP1 MLOAD PUSH1 0x20 DUP2 ADD DUP3 ADD DUP1 MLOAD DUP5 DUP3 MSTORE PUSH1 0x20 DUP4 ADD PUSH1 0x20 DUP6 ADD KECCAK256 DUP2 DUP4 MSTORE DUP1 SWAP6 POP POP POP POP POP POP PUSH1 0x0 SWAP2 POP SWAP1 POP SLOAD DUP2 JUMP JUMPDEST PUSH1 0x3 PUSH1 0x40 MLOAD DUP1 PUSH1 0x60 ADD PUSH1 0x40 MSTORE DUP1 DUP6 DUP2 MSTORE PUSH1 0x20 ADD DUP5 DUP2 MSTORE PUSH1 0x20 ADD DUP4 DUP2 MSTORE POP SWAP1 DUP1 PUSH1 0x1 DUP2 SLOAD ADD DUP1 DUP3 SSTORE DUP1 SWAP2 POP POP PUSH1 0x1 SWAP1 SUB SWAP1 PUSH1 0x0 MSTORE PUSH1 0x20 PUSH1 0x0 KECCAK256 SWAP1 PUSH1 0x3 MUL ADD PUSH1 0x0 SWAP1 SWAP2 SWAP1 SWAP2 SWAP1 SWAP2 POP PUSH1 0x0 DUP3 ADD MLOAD DUP2 PUSH1 0x0 ADD SSTORE PUSH1 0x20 DUP3 ADD MLOAD DUP2 PUSH1 0x1 ADD SWAP1 DUP2 PUSH2 0x49D SWAP2 SWAP1 PUSH2 0xAC6 JUMP JUMPDEST POP PUSH1 0x40 DUP3 ADD MLOAD DUP2 PUSH1 0x2 ADD SSTORE POP POP DUP3 PUSH1 0x4 DUP4 PUSH1 0x40 MLOAD PUSH2 0x4BB SWAP2 SWAP1 PUSH2 0xBD4 JUMP JUMPDEST SWAP1 DUP2 MSTORE PUSH1 0x20 ADD PUSH1 0x40 MLOAD DUP1 SWAP2 SUB SWAP1 KECCAK256 DUP2 SWAP1 SSTORE POP POP POP POP JUMP JUMPDEST PUSH1 0x0 DUP2 SWAP1 POP SWAP2 SWAP1 POP JUMP JUMPDEST PUSH2 0x4E5 DUP2 PUSH2 0x4D2 JUMP JUMPDEST DUP3 MSTORE POP POP JUMP JUMPDEST PUSH1 0x0 PUSH1 0x20 DUP3 ADD SWAP1 POP PUSH2 0x500 PUSH1 0x0 DUP4 ADD DUP5 PUSH2 0x4DC JUMP JUMPDEST SWAP3 SWAP2 POP POP JUMP JUMPDEST PUSH1 0x0 PUSH1 0x40 MLOAD SWAP1 POP SWAP1 JUMP JUMPDEST PUSH1 0x0 DUP1 REVERT JUMPDEST PUSH1 0x0 DUP1 REVERT JUMPDEST PUSH2 0x523 DUP2 PUSH2 0x4D2 JUMP JUMPDEST DUP2 EQ PUSH2 0x52E JUMPI PUSH1 0x0 DUP1 REVERT JUMPDEST POP JUMP JUMPDEST PUSH1 0x0 DUP2 CALLDATALOAD SWAP1 POP PUSH2 0x540 DUP2 PUSH2 0x51A JUMP JUMPDEST SWAP3 SWAP2 POP POP JUMP JUMPDEST PUSH1 0x0 PUSH1 0x20 DUP3 DUP5 SUB SLT ISZERO PUSH2 0x55C JUMPI PUSH2 0x55B PUSH2 0x510 JUMP JUMPDEST JUMPDEST PUSH1 0x0 PUSH2 0x56A DUP5 DUP3 DUP6 ADD PUSH2 0x531 JUMP JUMPDEST SWAP2 POP POP SWAP3 SWAP2 POP POP JUMP JUMPDEST PUSH1 0x0 DUP2 MLOAD SWAP1 POP SWAP2 SWAP1 POP JUMP JUMPDEST PUSH1 0x0 DUP3 DUP3 MSTORE PUSH1 0x20 DUP3 ADD SWAP1 POP SWAP3 SWAP2 POP POP JUMP JUMPDEST PUSH1 0x0 JUMPDEST DUP4 DUP2 LT ISZERO PUSH2 0x5AD JUMPI DUP1 DUP3 ADD MLOAD DUP2 DUP5 ADD MSTORE PUSH1 0x20 DUP2 ADD SWAP1 POP PUSH2 0x592 JUMP JUMPDEST PUSH1 0x0 DUP5 DUP5 ADD MSTORE POP POP POP POP JUMP JUMPDEST PUSH1 0x0 PUSH1 0x1F NOT PUSH1 0x1F DUP4 ADD AND SWAP1 POP SWAP2 SWAP1 POP JUMP JUMPDEST PUSH1 0x0 PUSH2 0x5D5 DUP3 PUSH2 0x573 JUMP JUMPDEST PUSH2 0x5DF DUP2 DUP6 PUSH2 0x57E JUMP JUMPDEST SWAP4 POP PUSH2 0x5EF DUP2 DUP6 PUSH1 0x20 DUP7 ADD PUSH2 0x58F JUMP JUMPDEST PUSH2 0x5F8 DUP2 PUSH2 0x5B9 JUMP JUMPDEST DUP5 ADD SWAP2 POP POP SWAP3 SWAP2 POP POP JUMP JUMPDEST PUSH1 0x0 PUSH1 0x40 DUP3 ADD SWAP1 POP PUSH2 0x618 PUSH1 0x0 DUP4 ADD DUP6 PUSH2 0x4DC JUMP JUMPDEST DUP2 DUP2 SUB PUSH1 0x20 DUP4 ADD MSTORE PUSH2 0x62A DUP2 DUP5 PUSH2 0x5CA JUMP JUMPDEST SWAP1 POP SWAP4 SWAP3 POP POP POP JUMP JUMPDEST PUSH1 0x0 PUSH1 0x60 DUP3 ADD SWAP1 POP PUSH2 0x648 PUSH1 0x0 DUP4 ADD DUP7 PUSH2 0x4DC JUMP JUMPDEST DUP2 DUP2 SUB PUSH1 0x20 DUP4 ADD MSTORE PUSH2 0x65A DUP2 DUP6 PUSH2 0x5CA JUMP JUMPDEST SWAP1 POP PUSH2 0x669 PUSH1 0x40 DUP4 ADD DUP5 PUSH2 0x4DC JUMP JUMPDEST SWAP5 SWAP4 POP POP POP POP JUMP JUMPDEST PUSH1 0x0 DUP1 REVERT JUMPDEST PUSH1 0x0 DUP1 REVERT JUMPDEST PUSH32 0x4E487B7100000000000000000000000000000000000000000000000000000000 PUSH1 0x0 MSTORE PUSH1 0x41 PUSH1 0x4 MSTORE PUSH1 0x24 PUSH1 0x0 REVERT JUMPDEST PUSH2 0x6B3 DUP3 PUSH2 0x5B9 JUMP JUMPDEST DUP2 ADD DUP2 DUP2 LT PUSH8 0xFFFFFFFFFFFFFFFF DUP3 GT OR ISZERO PUSH2 0x6D2 JUMPI PUSH2 0x6D1 PUSH2 0x67B JUMP JUMPDEST JUMPDEST DUP1 PUSH1 0x40 MSTORE POP POP POP JUMP JUMPDEST PUSH1 0x0 PUSH2 0x6E5 PUSH2 0x506 JUMP JUMPDEST SWAP1 POP PUSH2 0x6F1 DUP3 DUP3 PUSH2 0x6AA JUMP JUMPDEST SWAP2 SWAP1 POP JUMP JUMPDEST PUSH1 0x0 PUSH8 0xFFFFFFFFFFFFFFFF DUP3 GT ISZERO PUSH2 0x711 JUMPI PUSH2 0x710 PUSH2 0x67B JUMP JUMPDEST JUMPDEST PUSH2 0x71A DUP3 PUSH2 0x5B9 JUMP JUMPDEST SWAP1 POP PUSH1 0x20 DUP2 ADD SWAP1 POP SWAP2 SWAP1 POP JUMP JUMPDEST DUP3 DUP2 DUP4 CALLDATACOPY PUSH1 0x0 DUP4 DUP4 ADD MSTORE POP POP POP JUMP JUMPDEST PUSH1 0x0 PUSH2 0x749 PUSH2 0x744 DUP5 PUSH2 0x6F6 JUMP JUMPDEST PUSH2 0x6DB JUMP JUMPDEST SWAP1 POP DUP3 DUP2 MSTORE PUSH1 0x20 DUP2 ADD DUP5 DUP5 DUP5 ADD GT ISZERO PUSH2 0x765 JUMPI PUSH2 0x764 PUSH2 0x676 JUMP JUMPDEST JUMPDEST PUSH2 0x770 DUP5 DUP3 DUP6 PUSH2 0x727 JUMP JUMPDEST POP SWAP4 SWAP3 POP POP POP JUMP JUMPDEST PUSH1 0x0 DUP3 PUSH1 0x1F DUP4 ADD SLT PUSH2 0x78D JUMPI PUSH2 0x78C PUSH2 0x671 JUMP JUMPDEST JUMPDEST DUP2 CALLDATALOAD PUSH2 0x79D DUP5 DUP3 PUSH1 0x20 DUP7 ADD PUSH2 0x736 JUMP JUMPDEST SWAP2 POP POP SWAP3 SWAP2 POP POP JUMP JUMPDEST PUSH1 0x0 DUP1 PUSH1 0x40 DUP4 DUP6 SUB SLT ISZERO PUSH2 0x7BD JUMPI PUSH2 0x7BC PUSH2 0x510 JUMP JUMPDEST JUMPDEST PUSH1 0x0 DUP4 ADD CALLDATALOAD PUSH8 0xFFFFFFFFFFFFFFFF DUP2 GT ISZERO PUSH2 0x7DB JUMPI PUSH2 0x7DA PUSH2 0x515 JUMP JUMPDEST JUMPDEST PUSH2 0x7E7 DUP6 DUP3 DUP7 ADD PUSH2 0x778 JUMP JUMPDEST SWAP3 POP POP PUSH1 0x20 PUSH2 0x7F8 DUP6 DUP3 DUP7 ADD PUSH2 0x531 JUMP JUMPDEST SWAP2 POP POP SWAP3 POP SWAP3 SWAP1 POP JUMP JUMPDEST PUSH1 0x0 PUSH1 0x20 DUP3 DUP5 SUB SLT ISZERO PUSH2 0x818 JUMPI PUSH2 0x817 PUSH2 0x510 JUMP JUMPDEST JUMPDEST PUSH1 0x0 DUP3 ADD CALLDATALOAD PUSH8 0xFFFFFFFFFFFFFFFF DUP2 GT ISZERO PUSH2 0x836 JUMPI PUSH2 0x835 PUSH2 0x515 JUMP JUMPDEST JUMPDEST PUSH2 0x842 DUP5 DUP3 DUP6 ADD PUSH2 0x778 JUMP JUMPDEST SWAP2 POP POP SWAP3 SWAP2 POP POP JUMP JUMPDEST PUSH1 0x0 DUP1 PUSH1 0x0 PUSH1 0x60 DUP5 DUP7 SUB SLT ISZERO PUSH2 0x864 JUMPI PUSH2 0x863 PUSH2 0x510 JUMP JUMPDEST JUMPDEST PUSH1 0x0 PUSH2 0x872 DUP7 DUP3 DUP8 ADD PUSH2 0x531 JUMP JUMPDEST SWAP4 POP POP PUSH1 0x20 DUP5 ADD CALLDATALOAD PUSH8 0xFFFFFFFFFFFFFFFF DUP2 GT ISZERO PUSH2 0x893 JUMPI PUSH2 0x892 PUSH2 0x515 JUMP JUMPDEST JUMPDEST PUSH2 0x89F DUP7 DUP3 DUP8 ADD PUSH2 0x778 JUMP JUMPDEST SWAP3 POP POP PUSH1 0x40 PUSH2 0x8B0 DUP7 DUP3 DUP8 ADD PUSH2 0x531 JUMP JUMPDEST SWAP2 POP POP SWAP3 POP SWAP3 POP SWAP3 JUMP JUMPDEST PUSH32 0x4E487B7100000000000000000000000000000000000000000000000000000000 PUSH1 0x0 MSTORE PUSH1 0x22 PUSH1 0x4 MSTORE PUSH1 0x24 PUSH1 0x0 REVERT JUMPDEST PUSH1 0x0 PUSH1 0x2 DUP3 DIV SWAP1 POP PUSH1 0x1 DUP3 AND DUP1 PUSH2 0x901 JUMPI PUSH1 0x7F DUP3 AND SWAP2 POP JUMPDEST PUSH1 0x20 DUP3 LT DUP2 SUB PUSH2 0x914 JUMPI PUSH2 0x913 PUSH2 0x8BA JUMP JUMPDEST JUMPDEST POP SWAP2 SWAP1 POP JUMP JUMPDEST PUSH1 0x0 DUP2 SWAP1 POP DUP2 PUSH1 0x0 MSTORE PUSH1 0x20 PUSH1 0x0 KECCAK256 SWAP1 POP SWAP2 SWAP1 POP JUMP JUMPDEST PUSH1 0x0 PUSH1 0x20 PUSH1 0x1F DUP4 ADD DIV SWAP1 POP SWAP2 SWAP1 POP JUMP JUMPDEST PUSH1 0x0 DUP3 DUP3 SHL SWAP1 POP SWAP3 SWAP2 POP POP JUMP JUMPDEST PUSH1 0x0 PUSH1 0x8 DUP4 MUL PUSH2 0x97C PUSH32 0xFFFFFFFFFFFFFFFFFFFFFFFFFFFFFFFFFFFFFFFFFFFFFFFFFFFFFFFFFFFFFFFF DUP3 PUSH2 0x93F JUMP JUMPDEST PUSH2 0x986 DUP7 DUP4 PUSH2 0x93F JUMP JUMPDEST SWAP6 POP DUP1 NOT DUP5 AND SWAP4 POP DUP1 DUP7 AND DUP5 OR SWAP3 POP POP POP SWAP4 SWAP3 POP POP POP JUMP JUMPDEST PUSH1 0x0 DUP2 SWAP1 POP SWAP2 SWAP1 POP JUMP JUMPDEST PUSH1 0x0 PUSH2 0x9C3 PUSH2 0x9BE PUSH2 0x9B9 DUP5 PUSH2 0x4D2 JUMP JUMPDEST PUSH2 0x99E JUMP JUMPDEST PUSH2 0x4D2 JUMP JUMPDEST SWAP1 POP SWAP2 SWAP1 POP JUMP JUMPDEST PUSH1 0x0 DUP2 SWAP1 POP SWAP2 SWAP1 POP JUMP JUMPDEST PUSH2 0x9DD DUP4 PUSH2 0x9A8 JUMP JUMPDEST PUSH2 0x9F1 PUSH2 0x9E9 DUP3 PUSH2 0x9CA JUMP JUMPDEST DUP5 DUP5 SLOAD PUSH2 0x94C JUMP JUMPDEST DUP3 SSTORE POP POP POP POP JUMP JUMPDEST PUSH1 0x0 SWAP1 JUMP JUMPDEST PUSH2 0xA06 PUSH2 0x9F9 JUMP JUMPDEST PUSH2 0xA11 DUP2 DUP5 DUP5 PUSH2 0x9D4 JUMP JUMPDEST POP POP POP JUMP JUMPDEST JUMPDEST DUP2 DUP2 LT ISZERO PUSH2 0xA35 JUMPI PUSH2 0xA2A PUSH1 0x0 DUP3 PUSH2 0x9FE JUMP JUMPDEST PUSH1 0x1 DUP2 ADD SWAP1 POP PUSH2 0xA17 JUMP JUMPDEST POP POP JUMP JUMPDEST PUSH1 0x1F DUP3 GT ISZERO PUSH2 0xA7A JUMPI PUSH2 0xA4B DUP2 PUSH2 0x91A JUMP JUMPDEST PUSH2 0xA54 DUP5 PUSH2 0x92F JUMP JUMPDEST DUP2 ADD PUSH1 0x20 DUP6 LT ISZERO PUSH2 0xA63 JUMPI DUP2 SWAP1 POP JUMPDEST PUSH2 0xA77 PUSH2 0xA6F DUP6 PUSH2 0x92F JUMP JUMPDEST DUP4 ADD DUP3 PUSH2 0xA16 JUMP JUMPDEST POP POP JUMPDEST POP POP POP JUMP JUMPDEST PUSH1 0x0 DUP3 DUP3 SHR SWAP1 POP SWAP3 SWAP2 POP POP JUMP JUMPDEST PUSH1 0x0 PUSH2 0xA9D PUSH1 0x0 NOT DUP5 PUSH1 0x8 MUL PUSH2 0xA7F JUMP JUMPDEST NOT DUP1 DUP4 AND SWAP2 POP POP SWAP3 SWAP2 POP POP JUMP JUMPDEST PUSH1 0x0 PUSH2 0xAB6 DUP4 DUP4 PUSH2 0xA8C JUMP JUMPDEST SWAP2 POP DUP3 PUSH1 0x2 MUL DUP3 OR SWAP1 POP SWAP3 SWAP2 POP POP JUMP JUMPDEST PUSH2 0xACF DUP3 PUSH2 0x573 JUMP JUMPDEST PUSH8 0xFFFFFFFFFFFFFFFF DUP2 GT ISZERO PUSH2 0xAE8 JUMPI PUSH2 0xAE7 PUSH2 0x67B JUMP JUMPDEST JUMPDEST PUSH2 0xAF2 DUP3 SLOAD PUSH2 0x8E9 JUMP JUMPDEST PUSH2 0xAFD DUP3 DUP3 DUP6 PUSH2 0xA39 JUMP JUMPDEST PUSH1 0x0 PUSH1 0x20 SWAP1 POP PUSH1 0x1F DUP4 GT PUSH1 0x1 DUP2 EQ PUSH2 0xB30 JUMPI PUSH1 0x0 DUP5 ISZERO PUSH2 0xB1E JUMPI DUP3 DUP8 ADD MLOAD SWAP1 POP JUMPDEST PUSH2 0xB28 DUP6 DUP3 PUSH2 0xAAA JUMP JUMPDEST DUP7 SSTORE POP PUSH2 0xB90 JUMP JUMPDEST PUSH1 0x1F NOT DUP5 AND PUSH2 0xB3E DUP7 PUSH2 0x91A JUMP JUMPDEST PUSH1 0x0 JUMPDEST DUP3 DUP2 LT ISZERO PUSH2 0xB66 JUMPI DUP5 DUP10 ADD MLOAD DUP3 SSTORE PUSH1 0x1 DUP3 ADD SWAP2 POP PUSH1 0x20 DUP6 ADD SWAP5 POP PUSH1 0x20 DUP2 ADD SWAP1 POP PUSH2 0xB41 JUMP JUMPDEST DUP7 DUP4 LT ISZERO PUSH2 0xB83 JUMPI DUP5 DUP10 ADD MLOAD PUSH2 0xB7F PUSH1 0x1F DUP10 AND DUP3 PUSH2 0xA8C JUMP JUMPDEST DUP4 SSTORE POP JUMPDEST PUSH1 0x1 PUSH1 0x2 DUP9 MUL ADD DUP9 SSTORE POP POP POP JUMPDEST POP POP POP POP POP POP JUMP JUMPDEST PUSH1 0x0 DUP2 SWAP1 POP SWAP3 SWAP2 POP POP JUMP JUMPDEST PUSH1 0x0 PUSH2 0xBAE DUP3 PUSH2 0x573 JUMP JUMPDEST PUSH2 0xBB8 DUP2 DUP6 PUSH2 0xB98 JUMP JUMPDEST SWAP4 POP PUSH2 0xBC8 DUP2 DUP6 PUSH1 0x20 DUP7 ADD PUSH2 0x58F JUMP JUMPDEST DUP1 DUP5 ADD SWAP2 POP POP SWAP3 SWAP2 POP POP JUMP JUMPDEST PUSH1 0x0 PUSH2 0xBE0 DUP3 DUP5 PUSH2 0xBA3 JUMP JUMPDEST SWAP2 POP DUP2 SWAP1 POP SWAP3 SWAP2 POP POP JUMP INVALID LOG2 PUSH5 0x6970667358 0x22 SLT KECCAK256 LOG1 LT SWAP11 0xEA 0xA6 GASLIMIT 0x21 SWAP1 0xBB SWAP5 PUSH13 0x4AA4291A51C552BA89C5F0ECCD COINBASE 0xF8 SWAP6 0x23 DUP3 LOG0 CALLDATASIZE DUP15 PUSH5 0x736F6C6343 STOP ADDMOD SGT STOP CALLER "
				},
				"gasEstimates": {
					"creation": {
						"codeDepositCost": "621000",
						"executionCost": "657",
						"totalCost": "621657"
					},
					"external": {
						"addCar(uint256,string,uint256)": "infinite",
						"addPerson(string,uint256)": "infinite",
						"brandToCarPrice(string)": "infinite",
						"listOfCars(uint256)": "infinite",
						"listOfPeople(uint256)": "infinite",
						"nameToFavoriteNumber(string)": "infinite",
						"retrieve()": "2438",
						"store(uint256)": "22587"
					}
				},
				"methodIdentifiers": {
					"addCar(uint256,string,uint256)": "ab2a45e9",
					"addPerson(string,uint256)": "6f760f41",
					"brandToCarPrice(string)": "a226c34d",
					"listOfCars(uint256)": "56af3632",
					"listOfPeople(uint256)": "2ebce631",
					"nameToFavoriteNumber(string)": "8bab8dd5",
					"retrieve()": "2e64cec1",
					"store(uint256)": "6057361d"
				}
			},
			"storageLayout": {
				"storage": [
					{
						"astId": 3,
						"contract": "contracts/SimpleStorage.sol:SimpleStorage",
						"label": "myFavoriteNumber",
						"offset": 0,
						"slot": "0",
						"type": "t_uint256"
					},
					{
						"astId": 12,
						"contract": "contracts/SimpleStorage.sol:SimpleStorage",
						"label": "listOfPeople",
						"offset": 0,
						"slot": "1",
						"type": "t_array(t_struct(Person)8_storage)dyn_storage"
					},
					{
						"astId": 16,
						"contract": "contracts/SimpleStorage.sol:SimpleStorage",
						"label": "nameToFavoriteNumber",
						"offset": 0,
						"slot": "2",
						"type": "t_mapping(t_string_memory_ptr,t_uint256)"
					},
					{
						"astId": 68,
						"contract": "contracts/SimpleStorage.sol:SimpleStorage",
						"label": "listOfCars",
						"offset": 0,
						"slot": "3",
						"type": "t_array(t_struct(Car)64_storage)dyn_storage"
					},
					{
						"astId": 72,
						"contract": "contracts/SimpleStorage.sol:SimpleStorage",
						"label": "brandToCarPrice",
						"offset": 0,
						"slot": "4",
						"type": "t_mapping(t_string_memory_ptr,t_uint256)"
					}
				],
				"types": {
					"t_array(t_struct(Car)64_storage)dyn_storage": {
						"base": "t_struct(Car)64_storage",
						"encoding": "dynamic_array",
						"label": "struct SimpleStorage.Car[]",
						"numberOfBytes": "32"
					},
					"t_array(t_struct(Person)8_storage)dyn_storage": {
						"base": "t_struct(Person)8_storage",
						"encoding": "dynamic_array",
						"label": "struct SimpleStorage.Person[]",
						"numberOfBytes": "32"
					},
					"t_mapping(t_string_memory_ptr,t_uint256)": {
						"encoding": "mapping",
						"key": "t_string_memory_ptr",
						"label": "mapping(string => uint256)",
						"numberOfBytes": "32",
						"value": "t_uint256"
					},
					"t_string_memory_ptr": {
						"encoding": "bytes",
						"label": "string",
						"numberOfBytes": "32"
					},
					"t_string_storage": {
						"encoding": "bytes",
						"label": "string",
						"numberOfBytes": "32"
					},
					"t_struct(Car)64_storage": {
						"encoding": "inplace",
						"label": "struct SimpleStorage.Car",
						"members": [
							{
								"astId": 59,
								"contract": "contracts/SimpleStorage.sol:SimpleStorage",
								"label": "price",
								"offset": 0,
								"slot": "0",
								"type": "t_uint256"
							},
							{
								"astId": 61,
								"contract": "contracts/SimpleStorage.sol:SimpleStorage",
								"label": "brand",
								"offset": 0,
								"slot": "1",
								"type": "t_string_storage"
							},
							{
								"astId": 63,
								"contract": "contracts/SimpleStorage.sol:SimpleStorage",
								"label": "transmission",
								"offset": 0,
								"slot": "2",
								"type": "t_uint256"
							}
						],
						"numberOfBytes": "96"
					},
					"t_struct(Person)8_storage": {
						"encoding": "inplace",
						"label": "struct SimpleStorage.Person",
						"members": [
							{
								"astId": 5,
								"contract": "contracts/SimpleStorage.sol:SimpleStorage",
								"label": "favoriteNumber",
								"offset": 0,
								"slot": "0",
								"type": "t_uint256"
							},
							{
								"astId": 7,
								"contract": "contracts/SimpleStorage.sol:SimpleStorage",
								"label": "name",
								"offset": 0,
								"slot": "1",
								"type": "t_string_storage"
							}
						],
						"numberOfBytes": "64"
					},
					"t_uint256": {
						"encoding": "inplace",
						"label": "uint256",
						"numberOfBytes": "32"
					}
				}
			},
			"userdoc": {
				"kind": "user",
				"methods": {},
				"version": 1
			}
		}
	}
}